{
  "address": "0xDC96363D4d52E6929C1b4FDe32109D2162Fd2292",
  "abi": [
    {
      "inputs": [
        {
          "internalType": "string",
          "name": "_jobId",
          "type": "string"
        },
        {
          "internalType": "address",
          "name": "_oracle",
          "type": "address"
        },
        {
          "internalType": "address",
          "name": "_linkAddress",
          "type": "address"
        },
        {
          "internalType": "address",
          "name": "_modelesAddress",
          "type": "address"
        }
      ],
      "stateMutability": "nonpayable",
      "type": "constructor"
    },
    {
      "anonymous": false,
      "inputs": [
        {
          "indexed": true,
          "internalType": "bytes32",
          "name": "id",
          "type": "bytes32"
        }
      ],
      "name": "ChainlinkCancelled",
      "type": "event"
    },
    {
      "anonymous": false,
      "inputs": [
        {
          "indexed": true,
          "internalType": "bytes32",
          "name": "id",
          "type": "bytes32"
        }
      ],
      "name": "ChainlinkFulfilled",
      "type": "event"
    },
    {
      "anonymous": false,
      "inputs": [
        {
          "indexed": true,
          "internalType": "bytes32",
          "name": "id",
          "type": "bytes32"
        }
      ],
      "name": "ChainlinkRequested",
      "type": "event"
    },
    {
      "anonymous": false,
      "inputs": [
        {
          "indexed": true,
          "internalType": "address",
          "name": "from",
          "type": "address"
        },
        {
          "indexed": true,
          "internalType": "address",
          "name": "to",
          "type": "address"
        }
      ],
      "name": "OwnershipTransferRequested",
      "type": "event"
    },
    {
      "anonymous": false,
      "inputs": [
        {
          "indexed": true,
          "internalType": "address",
          "name": "from",
          "type": "address"
        },
        {
          "indexed": true,
          "internalType": "address",
          "name": "to",
          "type": "address"
        }
      ],
      "name": "OwnershipTransferred",
      "type": "event"
    },
    {
      "anonymous": false,
      "inputs": [],
      "name": "ReceivedFulfillWeather",
      "type": "event"
    },
    {
      "inputs": [],
      "name": "acceptOwnership",
      "outputs": [],
      "stateMutability": "nonpayable",
      "type": "function"
    },
    {
      "inputs": [
        {
          "internalType": "address",
          "name": "_user",
          "type": "address"
        }
      ],
      "name": "addRequestedPromision",
      "outputs": [],
      "stateMutability": "nonpayable",
      "type": "function"
    },
    {
      "inputs": [
        {
          "internalType": "bytes32",
          "name": "_requestId",
          "type": "bytes32"
        },
        {
          "internalType": "uint256",
          "name": "_payment",
          "type": "uint256"
        },
        {
          "internalType": "bytes4",
          "name": "_callbackFunctionId",
          "type": "bytes4"
        },
        {
          "internalType": "uint256",
          "name": "_expiration",
          "type": "uint256"
        }
      ],
      "name": "cancelRequest",
      "outputs": [],
      "stateMutability": "nonpayable",
      "type": "function"
    },
    {
      "inputs": [
        {
          "internalType": "string",
          "name": "_url",
          "type": "string"
        }
      ],
      "name": "changeUrlforWeather",
      "outputs": [],
      "stateMutability": "nonpayable",
      "type": "function"
    },
    {
      "inputs": [
        {
          "internalType": "bytes",
          "name": "",
          "type": "bytes"
        }
      ],
      "name": "checkUpkeep",
      "outputs": [
        {
          "internalType": "bool",
          "name": "upkeepNeeded",
          "type": "bool"
        },
        {
          "internalType": "bytes",
          "name": "",
          "type": "bytes"
        }
      ],
      "stateMutability": "view",
      "type": "function"
    },
    {
      "inputs": [],
      "name": "counter",
      "outputs": [
        {
          "internalType": "uint256",
          "name": "",
          "type": "uint256"
        }
      ],
      "stateMutability": "view",
      "type": "function"
    },
    {
      "inputs": [
        {
          "internalType": "bytes32",
          "name": "_requestId",
          "type": "bytes32"
        },
        {
          "internalType": "int256",
          "name": "_degree",
          "type": "int256"
        }
      ],
      "name": "fulfillWeather",
      "outputs": [],
      "stateMutability": "nonpayable",
      "type": "function"
    },
    {
      "inputs": [],
      "name": "getChainlinkToken",
      "outputs": [
        {
          "internalType": "address",
          "name": "",
          "type": "address"
        }
      ],
      "stateMutability": "view",
      "type": "function"
    },
    {
      "inputs": [],
      "name": "interval",
      "outputs": [
        {
          "internalType": "uint256",
          "name": "",
          "type": "uint256"
        }
      ],
      "stateMutability": "view",
      "type": "function"
    },
    {
      "inputs": [],
      "name": "jobId",
      "outputs": [
        {
          "internalType": "string",
          "name": "",
          "type": "string"
        }
      ],
      "stateMutability": "view",
      "type": "function"
    },
    {
      "inputs": [],
      "name": "lastTimeStamp",
      "outputs": [
        {
          "internalType": "uint256",
          "name": "",
          "type": "uint256"
        }
      ],
      "stateMutability": "view",
      "type": "function"
    },
    {
      "inputs": [],
      "name": "modeles",
      "outputs": [
        {
          "internalType": "contract Models",
          "name": "",
          "type": "address"
        }
      ],
      "stateMutability": "view",
      "type": "function"
    },
    {
      "inputs": [],
      "name": "operationAddress",
      "outputs": [
        {
          "internalType": "address",
          "name": "",
          "type": "address"
        }
      ],
      "stateMutability": "view",
      "type": "function"
    },
    {
      "inputs": [],
      "name": "owner",
      "outputs": [
        {
          "internalType": "address",
          "name": "",
          "type": "address"
        }
      ],
      "stateMutability": "view",
      "type": "function"
    },
    {
      "inputs": [
        {
          "internalType": "bytes",
          "name": "",
          "type": "bytes"
        }
      ],
      "name": "performUpkeep",
      "outputs": [],
      "stateMutability": "nonpayable",
      "type": "function"
    },
    {
      "inputs": [],
      "name": "requestCurrentWeather",
      "outputs": [],
      "stateMutability": "nonpayable",
      "type": "function"
    },
    {
      "inputs": [
        {
          "internalType": "address",
          "name": "to",
          "type": "address"
        }
      ],
      "name": "transferOwnership",
      "outputs": [],
      "stateMutability": "nonpayable",
      "type": "function"
    },
    {
      "inputs": [],
      "name": "wheatherUrl",
      "outputs": [
        {
          "internalType": "string",
          "name": "",
          "type": "string"
        }
      ],
      "stateMutability": "view",
      "type": "function"
    },
    {
      "inputs": [],
      "name": "withdrawLink",
      "outputs": [],
      "stateMutability": "nonpayable",
      "type": "function"
    }
  ],
  "transactionHash": "0xf080d8cef1f17015743a66593ec19d01c212040cab484d8b4bc395fb89a87d92",
  "args": [
    "01cf7cb3ea804c9b95b08e92ff69c19b",
    "0x8a47E5063A8DD59D21daa2798825a320A8Ec4e94",
    "0x779877A7B0D9E8603169DdbD7836e478b4624789",
    "0x52e61459BD41aefA9E1A6915f20CbE7ec70eF1BC"
  ],
  "numDeployments": 1,
  "solcInputHash": "7a737455baec70f4ffad868610217b94",
  "bytecode": "0x60c060405260016004556040518060800160405280605f8152602001620038b0605f9139600b908162000033919062000668565b503480156200004157600080fd5b506040516200390f3803806200390f833981810160405281019062000067919062000918565b83838383338060008073ffffffffffffffffffffffffffffffffffffffff168273ffffffffffffffffffffffffffffffffffffffff1603620000e0576040517f08c379a0000000000000000000000000000000000000000000000000000000008152600401620000d79062000a0a565b60405180910390fd5b81600660006101000a81548173ffffffffffffffffffffffffffffffffffffffff021916908373ffffffffffffffffffffffffffffffffffffffff160217905550600073ffffffffffffffffffffffffffffffffffffffff168173ffffffffffffffffffffffffffffffffffffffff1614620001685762000167816200027960201b60201c565b5b50505080600960006101000a81548173ffffffffffffffffffffffffffffffffffffffff021916908373ffffffffffffffffffffffffffffffffffffffff1602179055508360089081620001bd919062000668565b508273ffffffffffffffffffffffffffffffffffffffff1660808173ffffffffffffffffffffffffffffffffffffffff16815250506200020382620003aa60201b60201c565b6001600a60003373ffffffffffffffffffffffffffffffffffffffff1673ffffffffffffffffffffffffffffffffffffffff16815260200190815260200160002060006101000a81548160ff02191690831515021790555050505050607860a0818152505042600d819055505050505062000a9e565b3373ffffffffffffffffffffffffffffffffffffffff168173ffffffffffffffffffffffffffffffffffffffff1603620002ea576040517f08c379a0000000000000000000000000000000000000000000000000000000008152600401620002e19062000a7c565b60405180910390fd5b80600760006101000a81548173ffffffffffffffffffffffffffffffffffffffff021916908373ffffffffffffffffffffffffffffffffffffffff1602179055508073ffffffffffffffffffffffffffffffffffffffff16600660009054906101000a900473ffffffffffffffffffffffffffffffffffffffff1673ffffffffffffffffffffffffffffffffffffffff167fed8889f560326eb138920d842192f0eb3dd22b4f139c87a2c57538e05bae127860405160405180910390a350565b80600260006101000a81548173ffffffffffffffffffffffffffffffffffffffff021916908373ffffffffffffffffffffffffffffffffffffffff16021790555050565b600081519050919050565b7f4e487b7100000000000000000000000000000000000000000000000000000000600052604160045260246000fd5b7f4e487b7100000000000000000000000000000000000000000000000000000000600052602260045260246000fd5b600060028204905060018216806200047057607f821691505b60208210810362000486576200048562000428565b5b50919050565b60008190508160005260206000209050919050565b60006020601f8301049050919050565b600082821b905092915050565b600060088302620004f07fffffffffffffffffffffffffffffffffffffffffffffffffffffffffffffffff82620004b1565b620004fc8683620004b1565b95508019841693508086168417925050509392505050565b6000819050919050565b6000819050919050565b600062000549620005436200053d8462000514565b6200051e565b62000514565b9050919050565b6000819050919050565b620005658362000528565b6200057d620005748262000550565b848454620004be565b825550505050565b600090565b6200059462000585565b620005a18184846200055a565b505050565b5b81811015620005c957620005bd6000826200058a565b600181019050620005a7565b5050565b601f8211156200061857620005e2816200048c565b620005ed84620004a1565b81016020851015620005fd578190505b620006156200060c85620004a1565b830182620005a6565b50505b505050565b600082821c905092915050565b60006200063d600019846008026200061d565b1980831691505092915050565b60006200065883836200062a565b9150826002028217905092915050565b6200067382620003ee565b67ffffffffffffffff8111156200068f576200068e620003f9565b5b6200069b825462000457565b620006a8828285620005cd565b600060209050601f831160018114620006e05760008415620006cb578287015190505b620006d785826200064a565b86555062000747565b601f198416620006f0866200048c565b60005b828110156200071a57848901518255600182019150602085019450602081019050620006f3565b868310156200073a578489015162000736601f8916826200062a565b8355505b6001600288020188555050505b505050505050565b6000604051905090565b600080fd5b600080fd5b600080fd5b600080fd5b6000601f19601f8301169050919050565b62000789826200076d565b810181811067ffffffffffffffff82111715620007ab57620007aa620003f9565b5b80604052505050565b6000620007c06200074f565b9050620007ce82826200077e565b919050565b600067ffffffffffffffff821115620007f157620007f0620003f9565b5b620007fc826200076d565b9050602081019050919050565b60005b83811015620008295780820151818401526020810190506200080c565b60008484015250505050565b60006200084c6200084684620007d3565b620007b4565b9050828152602081018484840111156200086b576200086a62000768565b5b6200087884828562000809565b509392505050565b600082601f83011262000898576200089762000763565b5b8151620008aa84826020860162000835565b91505092915050565b600073ffffffffffffffffffffffffffffffffffffffff82169050919050565b6000620008e082620008b3565b9050919050565b620008f281620008d3565b8114620008fe57600080fd5b50565b6000815190506200091281620008e7565b92915050565b6000806000806080858703121562000935576200093462000759565b5b600085015167ffffffffffffffff8111156200095657620009556200075e565b5b620009648782880162000880565b9450506020620009778782880162000901565b93505060406200098a8782880162000901565b92505060606200099d8782880162000901565b91505092959194509250565b600082825260208201905092915050565b7f43616e6e6f7420736574206f776e657220746f207a65726f0000000000000000600082015250565b6000620009f2601883620009a9565b9150620009ff82620009ba565b602082019050919050565b6000602082019050818103600083015262000a2581620009e3565b9050919050565b7f43616e6e6f74207472616e7366657220746f2073656c66000000000000000000600082015250565b600062000a64601783620009a9565b915062000a718262000a2c565b602082019050919050565b6000602082019050818103600083015262000a978162000a55565b9050919050565b60805160a051612dd762000ad960003960008181610342015281816103ad0152610a780152600081816108520152610ad80152612dd76000f3fe608060405234801561001057600080fd5b50600436106101215760003560e01c80638dc654a2116100ad578063c2939d9711610071578063c2939d971461029b578063d1f2726e146102b9578063ec65d0f8146102d5578063f2fde38b146102f1578063f59f0eae1461030d57610121565b80638dc654a21461021b578063947a36fb14610225578063967a33a21461024357806396bfff061461025f578063a441c3021461027d57610121565b80636e04ff0d116100f45780636e04ff0d1461019c57806379ba5097146101cd57806382b64541146101d757806387d6bb33146101e15780638da5cb5b146101fd57610121565b8063165d35e1146101265780633f3b3b27146101445780634585e33b1461016257806361bc221a1461017e575b600080fd5b61012e61032b565b60405161013b9190611bbd565b60405180910390f35b61014c61033a565b6040516101599190611bf1565b60405180910390f35b61017c60048036038101906101779190611c7b565b610340565b005b6101866103a1565b6040516101939190611bf1565b60405180910390f35b6101b660048036038101906101b19190611c7b565b6103a7565b6040516101c4929190611d73565b60405180910390f35b6101d56103e4565b005b6101df61057b565b005b6101fb60048036038101906101f69190611dcf565b61089c565b005b6102056108ff565b6040516102129190611bbd565b60405180910390f35b610223610929565b005b61022d610a76565b60405161023a9190611bf1565b60405180910390f35b61025d60048036038101906102589190611e52565b610a9a565b005b610267610ab0565b6040516102749190611efe565b60405180910390f35b610285610ad6565b6040516102929190611bbd565b60405180910390f35b6102a3610afa565b6040516102b09190611f6e565b60405180910390f35b6102d360048036038101906102ce9190611ffc565b610b88565b005b6102ef60048036038101906102ea91906120c0565b610d4b565b005b61030b60048036038101906103069190611dcf565b610d65565b005b610315610d79565b6040516103229190611f6e565b60405180910390f35b6000610335610e07565b905090565b600d5481565b7f0000000000000000000000000000000000000000000000000000000000000000600d544261036f9190612156565b111561039d5742600d8190555061038461057b565b600c60008154809291906103979061218a565b91905055505b5050565b600c5481565b600060607f0000000000000000000000000000000000000000000000000000000000000000600d54426103da9190612156565b1191509250929050565b600760009054906101000a900473ffffffffffffffffffffffffffffffffffffffff1673ffffffffffffffffffffffffffffffffffffffff163373ffffffffffffffffffffffffffffffffffffffff1614610474576040517f08c379a000000000000000000000000000000000000000000000000000000000815260040161046b9061221e565b60405180910390fd5b6000600660009054906101000a900473ffffffffffffffffffffffffffffffffffffffff16905033600660006101000a81548173ffffffffffffffffffffffffffffffffffffffff021916908373ffffffffffffffffffffffffffffffffffffffff1602179055506000600760006101000a81548173ffffffffffffffffffffffffffffffffffffffff021916908373ffffffffffffffffffffffffffffffffffffffff1602179055503373ffffffffffffffffffffffffffffffffffffffff168173ffffffffffffffffffffffffffffffffffffffff167f8be0079c531659141344cd1fd0a4f28419497f9722a3daafe3b4186f6b6457e060405160405180910390a350565b600a60003373ffffffffffffffffffffffffffffffffffffffff1673ffffffffffffffffffffffffffffffffffffffff16815260200190815260200160002060009054906101000a900460ff16610607576040517f08c379a00000000000000000000000000000000000000000000000000000000081526004016105fe9061228a565b60405180910390fd5b60006106ad61069f6008805461061c906122d9565b80601f0160208091040260200160405190810160405280929190818152602001828054610648906122d9565b80156106955780601f1061066a57610100808354040283529160200191610695565b820191906000526020600020905b81548152906001019060200180831161067857829003601f168201915b5050505050610e31565b3063d1f2726e60e01b610e5a565b90506107836040518060400160405280600381526020017f6765740000000000000000000000000000000000000000000000000000000000815250600b80546106f5906122d9565b80601f0160208091040260200160405190810160405280929190818152602001828054610721906122d9565b801561076e5780601f106107435761010080835404028352916020019161076e565b820191906000526020600020905b81548152906001019060200180831161075157829003601f168201915b505050505083610e8b9092919063ffffffff16565b6108026040518060400160405280600481526020017f70617468000000000000000000000000000000000000000000000000000000008152506040518060400160405280601b81526020017f63757272656e745f776561746865722c74656d7065726174757265000000000081525083610e8b9092919063ffffffff16565b61084d6040518060400160405280600581526020017f74696d6573000000000000000000000000000000000000000000000000000000815250606483610ebe9092919063ffffffff16565b6108987f000000000000000000000000000000000000000000000000000000000000000082600a670de0b6b3a76400006001610889919061230a565b610893919061237b565b610ef1565b5050565b6108a4610fbd565b6001600a60008373ffffffffffffffffffffffffffffffffffffffff1673ffffffffffffffffffffffffffffffffffffffff16815260200190815260200160002060006101000a81548160ff02191690831515021790555050565b6000600660009054906101000a900473ffffffffffffffffffffffffffffffffffffffff16905090565b610931610fbd565b600061093b610e07565b90508073ffffffffffffffffffffffffffffffffffffffff1663a9059cbb338373ffffffffffffffffffffffffffffffffffffffff166370a08231306040518263ffffffff1660e01b81526004016109939190611bbd565b602060405180830381865afa1580156109b0573d6000803e3d6000fd5b505050506040513d601f19601f820116820180604052508101906109d491906123c1565b6040518363ffffffff1660e01b81526004016109f19291906123ee565b6020604051808303816000875af1158015610a10573d6000803e3d6000fd5b505050506040513d601f19601f82011682018060405250810190610a349190612443565b610a73576040517f08c379a0000000000000000000000000000000000000000000000000000000008152600401610a6a906124bc565b60405180910390fd5b50565b7f000000000000000000000000000000000000000000000000000000000000000081565b8181600b9182610aab9291906126b8565b505050565b600960009054906101000a900473ffffffffffffffffffffffffffffffffffffffff1681565b7f000000000000000000000000000000000000000000000000000000000000000081565b60088054610b07906122d9565b80601f0160208091040260200160405190810160405280929190818152602001828054610b33906122d9565b8015610b805780601f10610b5557610100808354040283529160200191610b80565b820191906000526020600020905b815481529060010190602001808311610b6357829003601f168201915b505050505081565b816005600082815260200190815260200160002060009054906101000a900473ffffffffffffffffffffffffffffffffffffffff1673ffffffffffffffffffffffffffffffffffffffff163373ffffffffffffffffffffffffffffffffffffffff1614610c2a576040517f08c379a0000000000000000000000000000000000000000000000000000000008152600401610c21906127fa565b60405180910390fd5b6005600082815260200190815260200160002060006101000a81549073ffffffffffffffffffffffffffffffffffffffff0219169055807f7cc135e0cebb02c3480ae5d74d377283180a2601f8f644edf7987b009316c63a60405160405180910390a2600960009054906101000a900473ffffffffffffffffffffffffffffffffffffffff1673ffffffffffffffffffffffffffffffffffffffff166359737ee1836040518263ffffffff1660e01b8152600401610ce89190612829565b600060405180830381600087803b158015610d0257600080fd5b505af1158015610d16573d6000803e3d6000fd5b505050507fa3e3aa8772fb60025533901c23518c6a00a1bbde3f8c33f00cf7d5bbd2ed1adc60405160405180910390a1505050565b610d53610fbd565b610d5f8484848461104f565b50505050565b610d6d610fbd565b610d7681611162565b50565b600b8054610d86906122d9565b80601f0160208091040260200160405190810160405280929190818152602001828054610db2906122d9565b8015610dff5780601f10610dd457610100808354040283529160200191610dff565b820191906000526020600020905b815481529060010190602001808311610de257829003601f168201915b505050505081565b6000600260009054906101000a900473ffffffffffffffffffffffffffffffffffffffff16905090565b6000808290506000815103610e4c576000801b915050610e55565b60208301519150505b919050565b610e62611af5565b610e6a611af5565b610e8185858584611290909392919063ffffffff16565b9150509392505050565b610ea282846080015161134090919063ffffffff16565b610eb981846080015161134090919063ffffffff16565b505050565b610ed582846080015161134090919063ffffffff16565b610eec81846080015161136590919063ffffffff16565b505050565b6000806004549050600181610f069190612844565b6004819055506000634042994660e01b60008087600001513089604001518760018c6080015160000151604051602401610f47989796959493929190612896565b604051602081830303815290604052907bffffffffffffffffffffffffffffffffffffffffffffffffffffffff19166020820180517bffffffffffffffffffffffffffffffffffffffffffffffffffffffff83818316178352505050509050610fb286838684611412565b925050509392505050565b600660009054906101000a900473ffffffffffffffffffffffffffffffffffffffff1673ffffffffffffffffffffffffffffffffffffffff163373ffffffffffffffffffffffffffffffffffffffff161461104d576040517f08c379a000000000000000000000000000000000000000000000000000000000815260040161104490612967565b60405180910390fd5b565b60006005600086815260200190815260200160002060009054906101000a900473ffffffffffffffffffffffffffffffffffffffff1690506005600086815260200190815260200160002060006101000a81549073ffffffffffffffffffffffffffffffffffffffff0219169055847fe1fe3afa0f7f761ff0a8b89086790efd5140d2907ebd5b7ff6bfcb5e075fd4c560405160405180910390a28073ffffffffffffffffffffffffffffffffffffffff16636ee4d553868686866040518563ffffffff1660e01b81526004016111299493929190612987565b600060405180830381600087803b15801561114357600080fd5b505af1158015611157573d6000803e3d6000fd5b505050505050505050565b3373ffffffffffffffffffffffffffffffffffffffff168173ffffffffffffffffffffffffffffffffffffffff16036111d0576040517f08c379a00000000000000000000000000000000000000000000000000000000081526004016111c790612a18565b60405180910390fd5b80600760006101000a81548173ffffffffffffffffffffffffffffffffffffffff021916908373ffffffffffffffffffffffffffffffffffffffff1602179055508073ffffffffffffffffffffffffffffffffffffffff16600660009054906101000a900473ffffffffffffffffffffffffffffffffffffffff1673ffffffffffffffffffffffffffffffffffffffff167fed8889f560326eb138920d842192f0eb3dd22b4f139c87a2c57538e05bae127860405160405180910390a350565b611298611af5565b6112a885608001516101006115a7565b508385600001818152505082856020019073ffffffffffffffffffffffffffffffffffffffff16908173ffffffffffffffffffffffffffffffffffffffff16815250508185604001907bffffffffffffffffffffffffffffffffffffffffffffffffffffffff191690817bffffffffffffffffffffffffffffffffffffffffffffffffffffffff191681525050849050949350505050565b61134d8260038351611611565b611360818361179690919063ffffffff16565b505050565b7fffffffffffffffffffffffffffffffffffffffffffffffff000000000000000081121561139c5761139782826117b8565b61140e565b67ffffffffffffffff8113156113bb576113b6828261182f565b61140d565b600081126113d4576113cf82600083611611565b61140c565b61140b826001837fffffffffffffffffffffffffffffffffffffffffffffffffffffffffffffffff6114069190612a38565b611611565b5b5b5b5050565b60003084604051602001611427929190612af6565b604051602081830303815290604052805190602001209050846005600083815260200190815260200160002060006101000a81548173ffffffffffffffffffffffffffffffffffffffff021916908373ffffffffffffffffffffffffffffffffffffffff160217905550807fb5e6e01e79f91267dc17b4e6314d5d4d03593d2ceee0fbb452b750bd70ea5af960405160405180910390a2600260009054906101000a900473ffffffffffffffffffffffffffffffffffffffff1673ffffffffffffffffffffffffffffffffffffffff16634000aea08685856040518463ffffffff1660e01b815260040161151d93929190612b22565b6020604051808303816000875af115801561153c573d6000803e3d6000fd5b505050506040513d601f19601f820116820180604052508101906115609190612443565b61159f576040517f08c379a000000000000000000000000000000000000000000000000000000000815260040161159690612bd2565b60405180910390fd5b949350505050565b6115af611b62565b60006020836115be9190612bf2565b146115ea576020826115d09190612bf2565b60206115dc9190612156565b826115e79190612844565b91505b81836020018181525050604051808452600081528281016020016040525082905092915050565b60178167ffffffffffffffff1611611648576116428160058460ff16901b60ff16178461187b90919063ffffffff16565b50611791565b60ff8167ffffffffffffffff161161169e57611677601860058460ff16901b178461187b90919063ffffffff16565b506116988167ffffffffffffffff1660018561189b9092919063ffffffff16565b50611790565b61ffff8167ffffffffffffffff16116116f5576116ce601960058460ff16901b178461187b90919063ffffffff16565b506116ef8167ffffffffffffffff1660028561189b9092919063ffffffff16565b5061178f565b63ffffffff8167ffffffffffffffff161161174e57611727601a60058460ff16901b178461187b90919063ffffffff16565b506117488167ffffffffffffffff1660048561189b9092919063ffffffff16565b5061178e565b61176b601b60058460ff16901b178461187b90919063ffffffff16565b5061178c8167ffffffffffffffff1660088561189b9092919063ffffffff16565b505b5b5b5b505050565b61179e611b62565b6117b0838460000151518485516118bd565b905092915050565b6117d660036005600660ff16901b178361187b90919063ffffffff16565b5061182b82827fffffffffffffffffffffffffffffffffffffffffffffffffffffffffffffffff6118079190612a38565b6040516020016118179190611bf1565b6040516020818303038152906040526119ac565b5050565b61184d60026005600660ff16901b178361187b90919063ffffffff16565b5061187782826040516020016118639190611bf1565b6040516020818303038152906040526119ac565b5050565b611883611b62565b61189383846000015151846119d1565b905092915050565b6118a3611b62565b6118b4848560000151518585611a27565b90509392505050565b6118c5611b62565b82518211156118d357600080fd5b846020015182856118e49190612844565b111561191957611918856002611909886020015188876119049190612844565b611ab5565b611913919061230a565b611ad1565b5b6000808651805187602083010193508088870111156119385787860182525b60208701925050505b6020841061197f578051825260208261195a9190612844565b91506020816119699190612844565b90506020846119789190612156565b9350611941565b60006001856020036101000a03905080198251168184511681811785525050508692505050949350505050565b6119b98260028351611611565b6119cc818361179690919063ffffffff16565b505050565b6119d9611b62565b836020015183106119ff576119fe84600286602001516119f9919061230a565b611ad1565b5b83518051602085830101848153818603611a1a576001820183525b5050508390509392505050565b611a2f611b62565b84602001518483611a409190612844565b1115611a6857611a678560028685611a589190612844565b611a62919061230a565b611ad1565b5b6000600183610100611a7a9190612d56565b611a849190612156565b90508551838682010185831982511617815281518588011115611aa75784870182525b505085915050949350505050565b600081831115611ac757829050611acb565b8190505b92915050565b600082600001519050611ae483836115a7565b50611aef8382611796565b50505050565b6040518060a0016040528060008019168152602001600073ffffffffffffffffffffffffffffffffffffffff16815260200160007bffffffffffffffffffffffffffffffffffffffffffffffffffffffff1916815260200160008152602001611b5c611b62565b81525090565b604051806040016040528060608152602001600081525090565b600073ffffffffffffffffffffffffffffffffffffffff82169050919050565b6000611ba782611b7c565b9050919050565b611bb781611b9c565b82525050565b6000602082019050611bd26000830184611bae565b92915050565b6000819050919050565b611beb81611bd8565b82525050565b6000602082019050611c066000830184611be2565b92915050565b600080fd5b600080fd5b600080fd5b600080fd5b600080fd5b60008083601f840112611c3b57611c3a611c16565b5b8235905067ffffffffffffffff811115611c5857611c57611c1b565b5b602083019150836001820283011115611c7457611c73611c20565b5b9250929050565b60008060208385031215611c9257611c91611c0c565b5b600083013567ffffffffffffffff811115611cb057611caf611c11565b5b611cbc85828601611c25565b92509250509250929050565b60008115159050919050565b611cdd81611cc8565b82525050565b600081519050919050565b600082825260208201905092915050565b60005b83811015611d1d578082015181840152602081019050611d02565b60008484015250505050565b6000601f19601f8301169050919050565b6000611d4582611ce3565b611d4f8185611cee565b9350611d5f818560208601611cff565b611d6881611d29565b840191505092915050565b6000604082019050611d886000830185611cd4565b8181036020830152611d9a8184611d3a565b90509392505050565b611dac81611b9c565b8114611db757600080fd5b50565b600081359050611dc981611da3565b92915050565b600060208284031215611de557611de4611c0c565b5b6000611df384828501611dba565b91505092915050565b60008083601f840112611e1257611e11611c16565b5b8235905067ffffffffffffffff811115611e2f57611e2e611c1b565b5b602083019150836001820283011115611e4b57611e4a611c20565b5b9250929050565b60008060208385031215611e6957611e68611c0c565b5b600083013567ffffffffffffffff811115611e8757611e86611c11565b5b611e9385828601611dfc565b92509250509250929050565b6000819050919050565b6000611ec4611ebf611eba84611b7c565b611e9f565b611b7c565b9050919050565b6000611ed682611ea9565b9050919050565b6000611ee882611ecb565b9050919050565b611ef881611edd565b82525050565b6000602082019050611f136000830184611eef565b92915050565b600081519050919050565b600082825260208201905092915050565b6000611f4082611f19565b611f4a8185611f24565b9350611f5a818560208601611cff565b611f6381611d29565b840191505092915050565b60006020820190508181036000830152611f888184611f35565b905092915050565b6000819050919050565b611fa381611f90565b8114611fae57600080fd5b50565b600081359050611fc081611f9a565b92915050565b6000819050919050565b611fd981611fc6565b8114611fe457600080fd5b50565b600081359050611ff681611fd0565b92915050565b6000806040838503121561201357612012611c0c565b5b600061202185828601611fb1565b925050602061203285828601611fe7565b9150509250929050565b61204581611bd8565b811461205057600080fd5b50565b6000813590506120628161203c565b92915050565b60007fffffffff0000000000000000000000000000000000000000000000000000000082169050919050565b61209d81612068565b81146120a857600080fd5b50565b6000813590506120ba81612094565b92915050565b600080600080608085870312156120da576120d9611c0c565b5b60006120e887828801611fb1565b94505060206120f987828801612053565b935050604061210a878288016120ab565b925050606061211b87828801612053565b91505092959194509250565b7f4e487b7100000000000000000000000000000000000000000000000000000000600052601160045260246000fd5b600061216182611bd8565b915061216c83611bd8565b925082820390508181111561218457612183612127565b5b92915050565b600061219582611bd8565b91507fffffffffffffffffffffffffffffffffffffffffffffffffffffffffffffffff82036121c7576121c6612127565b5b600182019050919050565b7f4d7573742062652070726f706f736564206f776e657200000000000000000000600082015250565b6000612208601683611f24565b9150612213826121d2565b602082019050919050565b60006020820190508181036000830152612237816121fb565b9050919050565b7f596f7520646f6e27742068617665207065726d697373696f6e2e000000000000600082015250565b6000612274601a83611f24565b915061227f8261223e565b602082019050919050565b600060208201905081810360008301526122a381612267565b9050919050565b7f4e487b7100000000000000000000000000000000000000000000000000000000600052602260045260246000fd5b600060028204905060018216806122f157607f821691505b602082108103612304576123036122aa565b5b50919050565b600061231582611bd8565b915061232083611bd8565b925082820261232e81611bd8565b9150828204841483151761234557612344612127565b5b5092915050565b7f4e487b7100000000000000000000000000000000000000000000000000000000600052601260045260246000fd5b600061238682611bd8565b915061239183611bd8565b9250826123a1576123a061234c565b5b828204905092915050565b6000815190506123bb8161203c565b92915050565b6000602082840312156123d7576123d6611c0c565b5b60006123e5848285016123ac565b91505092915050565b60006040820190506124036000830185611bae565b6124106020830184611be2565b9392505050565b61242081611cc8565b811461242b57600080fd5b50565b60008151905061243d81612417565b92915050565b60006020828403121561245957612458611c0c565b5b60006124678482850161242e565b91505092915050565b7f556e61626c6520746f207472616e736665720000000000000000000000000000600082015250565b60006124a6601283611f24565b91506124b182612470565b602082019050919050565b600060208201905081810360008301526124d581612499565b9050919050565b600082905092915050565b7f4e487b7100000000000000000000000000000000000000000000000000000000600052604160045260246000fd5b60008190508160005260206000209050919050565b60006020601f8301049050919050565b600082821b905092915050565b6000600883026125787fffffffffffffffffffffffffffffffffffffffffffffffffffffffffffffffff8261253b565b612582868361253b565b95508019841693508086168417925050509392505050565b60006125b56125b06125ab84611bd8565b611e9f565b611bd8565b9050919050565b6000819050919050565b6125cf8361259a565b6125e36125db826125bc565b848454612548565b825550505050565b600090565b6125f86125eb565b6126038184846125c6565b505050565b5b818110156126275761261c6000826125f0565b600181019050612609565b5050565b601f82111561266c5761263d81612516565b6126468461252b565b81016020851015612655578190505b6126696126618561252b565b830182612608565b50505b505050565b600082821c905092915050565b600061268f60001984600802612671565b1980831691505092915050565b60006126a8838361267e565b9150826002028217905092915050565b6126c283836124dc565b67ffffffffffffffff8111156126db576126da6124e7565b5b6126e582546122d9565b6126f082828561262b565b6000601f83116001811461271f576000841561270d578287013590505b612717858261269c565b86555061277f565b601f19841661272d86612516565b60005b8281101561275557848901358255600182019150602085019450602081019050612730565b86831015612772578489013561276e601f89168261267e565b8355505b6001600288020188555050505b50505050505050565b7f536f75726365206d75737420626520746865206f7261636c65206f662074686560008201527f2072657175657374000000000000000000000000000000000000000000000000602082015250565b60006127e4602883611f24565b91506127ef82612788565b604082019050919050565b60006020820190508181036000830152612813816127d7565b9050919050565b61282381611fc6565b82525050565b600060208201905061283e600083018461281a565b92915050565b600061284f82611bd8565b915061285a83611bd8565b925082820190508082111561287257612871612127565b5b92915050565b61288181611f90565b82525050565b61289081612068565b82525050565b6000610100820190506128ac600083018b611bae565b6128b9602083018a611be2565b6128c66040830189612878565b6128d36060830188611bae565b6128e06080830187612887565b6128ed60a0830186611be2565b6128fa60c0830185611be2565b81810360e083015261290c8184611d3a565b90509998505050505050505050565b7f4f6e6c792063616c6c61626c65206279206f776e657200000000000000000000600082015250565b6000612951601683611f24565b915061295c8261291b565b602082019050919050565b6000602082019050818103600083015261298081612944565b9050919050565b600060808201905061299c6000830187612878565b6129a96020830186611be2565b6129b66040830185612887565b6129c36060830184611be2565b95945050505050565b7f43616e6e6f74207472616e7366657220746f2073656c66000000000000000000600082015250565b6000612a02601783611f24565b9150612a0d826129cc565b602082019050919050565b60006020820190508181036000830152612a31816129f5565b9050919050565b6000612a4382611fc6565b9150612a4e83611fc6565b9250828203905081811260008412168282136000851215161715612a7557612a74612127565b5b92915050565b6000612a8682611ecb565b9050919050565b60008160601b9050919050565b6000612aa582612a8d565b9050919050565b6000612ab782612a9a565b9050919050565b612acf612aca82612a7b565b612aac565b82525050565b6000819050919050565b612af0612aeb82611bd8565b612ad5565b82525050565b6000612b028285612abe565b601482019150612b128284612adf565b6020820191508190509392505050565b6000606082019050612b376000830186611bae565b612b446020830185611be2565b8181036040830152612b568184611d3a565b9050949350505050565b7f756e61626c6520746f207472616e73666572416e6443616c6c20746f206f726160008201527f636c650000000000000000000000000000000000000000000000000000000000602082015250565b6000612bbc602383611f24565b9150612bc782612b60565b604082019050919050565b60006020820190508181036000830152612beb81612baf565b9050919050565b6000612bfd82611bd8565b9150612c0883611bd8565b925082612c1857612c1761234c565b5b828206905092915050565b60008160011c9050919050565b6000808291508390505b6001851115612c7a57808604811115612c5657612c55612127565b5b6001851615612c655780820291505b8081029050612c7385612c23565b9450612c3a565b94509492505050565b600082612c935760019050612d4f565b81612ca15760009050612d4f565b8160018114612cb75760028114612cc157612cf0565b6001915050612d4f565b60ff841115612cd357612cd2612127565b5b8360020a915084821115612cea57612ce9612127565b5b50612d4f565b5060208310610133831016604e8410600b8410161715612d255782820a905083811115612d2057612d1f612127565b5b612d4f565b612d328484846001612c30565b92509050818404811115612d4957612d48612127565b5b81810290505b9392505050565b6000612d6182611bd8565b9150612d6c83611bd8565b9250612d997fffffffffffffffffffffffffffffffffffffffffffffffffffffffffffffffff8484612c83565b90509291505056fea2646970667358221220b9d567b55c8c7f814f8f9fbba3029111fdce4258bf05a7392e8cf89d55055a3064736f6c6343000813003368747470733a2f2f6170692e6f70656e2d6d6574656f2e636f6d2f76312f666f7265636173743f6c617469747564653d33302e35383333266c6f6e6769747564653d3131342e323636372663757272656e745f776561746865723d74727565",
  "devdoc": {
    "kind": "dev",
    "methods": {},
    "version": 1
  },
  "userdoc": {
    "kind": "user",
    "methods": {
      "acceptOwnership()": {
        "notice": "Allows an ownership transfer to be completed by the recipient."
      },
      "counter()": {
        "notice": "Public counter variable"
      },
      "interval()": {
        "notice": "Use an interval in seconds and a timestamp to slow execution of Upkeep"
      },
      "owner()": {
        "notice": "Get the current owner"
      },
      "transferOwnership(address)": {
        "notice": "Allows an owner to begin transferring ownership to a new address, pending."
      }
    },
    "notice": "THIS IS AN EXAMPLE CONTRACT THAT USES HARDCODED VALUES FOR CLARITY. THIS IS AN EXAMPLE CONTRACT THAT USES UN-AUDITED CODE. DO NOT USE THIS CODE IN PRODUCTION.",
    "version": 1
  },
  "storageLayout": {
    "storage": [
      {
        "astId": 358,
        "contract": "contracts/AutomaticallyUpdateWeather.sol:AutomaticallyUpdateWeather",
        "label": "s_ens",
        "offset": 0,
        "slot": "0",
        "type": "t_contract(ENSInterface)1375"
      },
      {
        "astId": 360,
        "contract": "contracts/AutomaticallyUpdateWeather.sol:AutomaticallyUpdateWeather",
        "label": "s_ensNode",
        "offset": 0,
        "slot": "1",
        "type": "t_bytes32"
      },
      {
        "astId": 363,
        "contract": "contracts/AutomaticallyUpdateWeather.sol:AutomaticallyUpdateWeather",
        "label": "s_link",
        "offset": 0,
        "slot": "2",
        "type": "t_contract(LinkTokenInterface)1470"
      },
      {
        "astId": 366,
        "contract": "contracts/AutomaticallyUpdateWeather.sol:AutomaticallyUpdateWeather",
        "label": "s_oracle",
        "offset": 0,
        "slot": "3",
        "type": "t_contract(OperatorInterface)1550"
      },
      {
        "astId": 369,
        "contract": "contracts/AutomaticallyUpdateWeather.sol:AutomaticallyUpdateWeather",
        "label": "s_requestCount",
        "offset": 0,
        "slot": "4",
        "type": "t_uint256"
      },
      {
        "astId": 373,
        "contract": "contracts/AutomaticallyUpdateWeather.sol:AutomaticallyUpdateWeather",
        "label": "s_pendingRequests",
        "offset": 0,
        "slot": "5",
        "type": "t_mapping(t_bytes32,t_address)"
      },
      {
        "astId": 928,
        "contract": "contracts/AutomaticallyUpdateWeather.sol:AutomaticallyUpdateWeather",
        "label": "s_owner",
        "offset": 0,
        "slot": "6",
        "type": "t_address"
      },
      {
        "astId": 930,
        "contract": "contracts/AutomaticallyUpdateWeather.sol:AutomaticallyUpdateWeather",
        "label": "s_pendingOwner",
        "offset": 0,
        "slot": "7",
        "type": "t_address"
      },
      {
        "astId": 8067,
        "contract": "contracts/AutomaticallyUpdateWeather.sol:AutomaticallyUpdateWeather",
        "label": "jobId",
        "offset": 0,
        "slot": "8",
        "type": "t_string_storage"
      },
      {
        "astId": 8072,
        "contract": "contracts/AutomaticallyUpdateWeather.sol:AutomaticallyUpdateWeather",
        "label": "modeles",
        "offset": 0,
        "slot": "9",
        "type": "t_contract(Models)8044"
      },
      {
        "astId": 8076,
        "contract": "contracts/AutomaticallyUpdateWeather.sol:AutomaticallyUpdateWeather",
        "label": "authenticatedUser",
        "offset": 0,
        "slot": "10",
        "type": "t_mapping(t_address,t_bool)"
      },
      {
        "astId": 8079,
        "contract": "contracts/AutomaticallyUpdateWeather.sol:AutomaticallyUpdateWeather",
        "label": "wheatherUrl",
        "offset": 0,
        "slot": "11",
        "type": "t_string_storage"
      },
      {
        "astId": 7201,
        "contract": "contracts/AutomaticallyUpdateWeather.sol:AutomaticallyUpdateWeather",
        "label": "counter",
        "offset": 0,
        "slot": "12",
        "type": "t_uint256"
      },
      {
        "astId": 7206,
        "contract": "contracts/AutomaticallyUpdateWeather.sol:AutomaticallyUpdateWeather",
        "label": "lastTimeStamp",
        "offset": 0,
        "slot": "13",
        "type": "t_uint256"
      }
    ],
    "types": {
      "t_address": {
        "encoding": "inplace",
        "label": "address",
        "numberOfBytes": "20"
      },
      "t_bool": {
        "encoding": "inplace",
        "label": "bool",
        "numberOfBytes": "1"
      },
      "t_bytes32": {
        "encoding": "inplace",
        "label": "bytes32",
        "numberOfBytes": "32"
      },
      "t_contract(ENSInterface)1375": {
        "encoding": "inplace",
        "label": "contract ENSInterface",
        "numberOfBytes": "20"
      },
      "t_contract(LinkTokenInterface)1470": {
        "encoding": "inplace",
        "label": "contract LinkTokenInterface",
        "numberOfBytes": "20"
      },
      "t_contract(Models)8044": {
        "encoding": "inplace",
        "label": "contract Models",
        "numberOfBytes": "20"
      },
      "t_contract(OperatorInterface)1550": {
        "encoding": "inplace",
        "label": "contract OperatorInterface",
        "numberOfBytes": "20"
      },
      "t_mapping(t_address,t_bool)": {
        "encoding": "mapping",
        "key": "t_address",
        "label": "mapping(address => bool)",
        "numberOfBytes": "32",
        "value": "t_bool"
      },
      "t_mapping(t_bytes32,t_address)": {
        "encoding": "mapping",
        "key": "t_bytes32",
        "label": "mapping(bytes32 => address)",
        "numberOfBytes": "32",
        "value": "t_address"
      },
      "t_string_storage": {
        "encoding": "bytes",
        "label": "string",
        "numberOfBytes": "32"
      },
      "t_uint256": {
        "encoding": "inplace",
        "label": "uint256",
        "numberOfBytes": "32"
      }
    }
  }
}