{
  "address": "0x52e61459BD41aefA9E1A6915f20CbE7ec70eF1BC",
  "abi": [
    {
      "inputs": [
        {
          "internalType": "uint256",
          "name": "_maxNumberOftoken",
          "type": "uint256"
        },
        {
          "internalType": "uint64",
          "name": "_subscriptionId",
          "type": "uint64"
        },
        {
          "internalType": "address",
          "name": "_VRFADDRESS",
          "type": "address"
        },
        {
          "internalType": "bytes32",
          "name": "_keyHash",
          "type": "bytes32"
        }
      ],
      "stateMutability": "nonpayable",
      "type": "constructor"
    },
    {
      "inputs": [],
      "name": "IpfsNFT__TransferFailed",
      "type": "error"
    },
    {
      "inputs": [],
      "name": "MAX__NUMBER__OF__ETC__OVER__1",
      "type": "error"
    },
    {
      "inputs": [],
      "name": "NOT__IN__WHITE__LIST",
      "type": "error"
    },
    {
      "inputs": [],
      "name": "OVER__MAX__NUM__OF__BES",
      "type": "error"
    },
    {
      "inputs": [
        {
          "internalType": "address",
          "name": "have",
          "type": "address"
        },
        {
          "internalType": "address",
          "name": "want",
          "type": "address"
        }
      ],
      "name": "OnlyCoordinatorCanFulfill",
      "type": "error"
    },
    {
      "anonymous": false,
      "inputs": [
        {
          "indexed": true,
          "internalType": "address",
          "name": "owner",
          "type": "address"
        },
        {
          "indexed": true,
          "internalType": "address",
          "name": "approved",
          "type": "address"
        },
        {
          "indexed": true,
          "internalType": "uint256",
          "name": "tokenId",
          "type": "uint256"
        }
      ],
      "name": "Approval",
      "type": "event"
    },
    {
      "anonymous": false,
      "inputs": [
        {
          "indexed": true,
          "internalType": "address",
          "name": "owner",
          "type": "address"
        },
        {
          "indexed": true,
          "internalType": "address",
          "name": "operator",
          "type": "address"
        },
        {
          "indexed": false,
          "internalType": "bool",
          "name": "approved",
          "type": "bool"
        }
      ],
      "name": "ApprovalForAll",
      "type": "event"
    },
    {
      "anonymous": false,
      "inputs": [
        {
          "indexed": false,
          "internalType": "uint256",
          "name": "_fromTokenId",
          "type": "uint256"
        },
        {
          "indexed": false,
          "internalType": "uint256",
          "name": "_toTokenId",
          "type": "uint256"
        }
      ],
      "name": "BatchMetadataUpdate",
      "type": "event"
    },
    {
      "anonymous": false,
      "inputs": [
        {
          "indexed": false,
          "internalType": "uint256",
          "name": "_tokenId",
          "type": "uint256"
        }
      ],
      "name": "MetadataUpdate",
      "type": "event"
    },
    {
      "anonymous": false,
      "inputs": [
        {
          "indexed": true,
          "internalType": "uint256",
          "name": "requestId",
          "type": "uint256"
        }
      ],
      "name": "MintRequest",
      "type": "event"
    },
    {
      "anonymous": false,
      "inputs": [
        {
          "indexed": true,
          "internalType": "uint256",
          "name": "requestId",
          "type": "uint256"
        }
      ],
      "name": "MintSuccess",
      "type": "event"
    },
    {
      "anonymous": false,
      "inputs": [
        {
          "indexed": true,
          "internalType": "address",
          "name": "previousOwner",
          "type": "address"
        },
        {
          "indexed": true,
          "internalType": "address",
          "name": "newOwner",
          "type": "address"
        }
      ],
      "name": "OwnershipTransferred",
      "type": "event"
    },
    {
      "anonymous": false,
      "inputs": [
        {
          "indexed": true,
          "internalType": "address",
          "name": "from",
          "type": "address"
        },
        {
          "indexed": true,
          "internalType": "address",
          "name": "to",
          "type": "address"
        },
        {
          "indexed": true,
          "internalType": "uint256",
          "name": "tokenId",
          "type": "uint256"
        }
      ],
      "name": "Transfer",
      "type": "event"
    },
    {
      "inputs": [
        {
          "internalType": "address[]",
          "name": "addresses",
          "type": "address[]"
        }
      ],
      "name": "addWhiteList",
      "outputs": [],
      "stateMutability": "nonpayable",
      "type": "function"
    },
    {
      "inputs": [
        {
          "internalType": "address",
          "name": "to",
          "type": "address"
        },
        {
          "internalType": "uint256",
          "name": "tokenId",
          "type": "uint256"
        }
      ],
      "name": "approve",
      "outputs": [],
      "stateMutability": "nonpayable",
      "type": "function"
    },
    {
      "inputs": [
        {
          "internalType": "address",
          "name": "owner",
          "type": "address"
        }
      ],
      "name": "balanceOf",
      "outputs": [
        {
          "internalType": "uint256",
          "name": "",
          "type": "uint256"
        }
      ],
      "stateMutability": "view",
      "type": "function"
    },
    {
      "inputs": [],
      "name": "callbackGasLimit",
      "outputs": [
        {
          "internalType": "uint32",
          "name": "",
          "type": "uint32"
        }
      ],
      "stateMutability": "view",
      "type": "function"
    },
    {
      "inputs": [
        {
          "internalType": "int256",
          "name": "_degree",
          "type": "int256"
        }
      ],
      "name": "changeERTStatus",
      "outputs": [],
      "stateMutability": "nonpayable",
      "type": "function"
    },
    {
      "inputs": [],
      "name": "currentDegree",
      "outputs": [
        {
          "internalType": "int256",
          "name": "",
          "type": "int256"
        }
      ],
      "stateMutability": "view",
      "type": "function"
    },
    {
      "inputs": [],
      "name": "currentDegreeLevel",
      "outputs": [
        {
          "internalType": "enum Models.DegreeState",
          "name": "",
          "type": "uint8"
        }
      ],
      "stateMutability": "view",
      "type": "function"
    },
    {
      "inputs": [
        {
          "internalType": "uint256",
          "name": "tokenId",
          "type": "uint256"
        }
      ],
      "name": "getApproved",
      "outputs": [
        {
          "internalType": "address",
          "name": "",
          "type": "address"
        }
      ],
      "stateMutability": "view",
      "type": "function"
    },
    {
      "inputs": [],
      "name": "getCurrentDegree",
      "outputs": [
        {
          "internalType": "int256",
          "name": "",
          "type": "int256"
        }
      ],
      "stateMutability": "view",
      "type": "function"
    },
    {
      "inputs": [],
      "name": "getCurrentWindowState",
      "outputs": [
        {
          "internalType": "enum Models.WindowState",
          "name": "",
          "type": "uint8"
        }
      ],
      "stateMutability": "view",
      "type": "function"
    },
    {
      "inputs": [],
      "name": "getMaxNumberOftoken",
      "outputs": [
        {
          "internalType": "uint256",
          "name": "",
          "type": "uint256"
        }
      ],
      "stateMutability": "view",
      "type": "function"
    },
    {
      "inputs": [
        {
          "internalType": "address",
          "name": "owner",
          "type": "address"
        },
        {
          "internalType": "address",
          "name": "operator",
          "type": "address"
        }
      ],
      "name": "isApprovedForAll",
      "outputs": [
        {
          "internalType": "bool",
          "name": "",
          "type": "bool"
        }
      ],
      "stateMutability": "view",
      "type": "function"
    },
    {
      "inputs": [],
      "name": "mint",
      "outputs": [],
      "stateMutability": "payable",
      "type": "function"
    },
    {
      "inputs": [],
      "name": "name",
      "outputs": [
        {
          "internalType": "string",
          "name": "",
          "type": "string"
        }
      ],
      "stateMutability": "view",
      "type": "function"
    },
    {
      "inputs": [],
      "name": "owner",
      "outputs": [
        {
          "internalType": "address",
          "name": "",
          "type": "address"
        }
      ],
      "stateMutability": "view",
      "type": "function"
    },
    {
      "inputs": [
        {
          "internalType": "uint256",
          "name": "tokenId",
          "type": "uint256"
        }
      ],
      "name": "ownerOf",
      "outputs": [
        {
          "internalType": "address",
          "name": "",
          "type": "address"
        }
      ],
      "stateMutability": "view",
      "type": "function"
    },
    {
      "inputs": [],
      "name": "preMint",
      "outputs": [],
      "stateMutability": "payable",
      "type": "function"
    },
    {
      "inputs": [
        {
          "internalType": "uint256",
          "name": "requestId",
          "type": "uint256"
        },
        {
          "internalType": "uint256[]",
          "name": "randomWords",
          "type": "uint256[]"
        }
      ],
      "name": "rawFulfillRandomWords",
      "outputs": [],
      "stateMutability": "nonpayable",
      "type": "function"
    },
    {
      "inputs": [],
      "name": "renounceOwnership",
      "outputs": [],
      "stateMutability": "nonpayable",
      "type": "function"
    },
    {
      "inputs": [
        {
          "internalType": "uint256",
          "name": "",
          "type": "uint256"
        }
      ],
      "name": "resToToken",
      "outputs": [
        {
          "internalType": "uint256",
          "name": "",
          "type": "uint256"
        }
      ],
      "stateMutability": "view",
      "type": "function"
    },
    {
      "inputs": [
        {
          "internalType": "address",
          "name": "from",
          "type": "address"
        },
        {
          "internalType": "address",
          "name": "to",
          "type": "address"
        },
        {
          "internalType": "uint256",
          "name": "tokenId",
          "type": "uint256"
        }
      ],
      "name": "safeTransferFrom",
      "outputs": [],
      "stateMutability": "nonpayable",
      "type": "function"
    },
    {
      "inputs": [
        {
          "internalType": "address",
          "name": "from",
          "type": "address"
        },
        {
          "internalType": "address",
          "name": "to",
          "type": "address"
        },
        {
          "internalType": "uint256",
          "name": "tokenId",
          "type": "uint256"
        },
        {
          "internalType": "bytes",
          "name": "data",
          "type": "bytes"
        }
      ],
      "name": "safeTransferFrom",
      "outputs": [],
      "stateMutability": "nonpayable",
      "type": "function"
    },
    {
      "inputs": [
        {
          "internalType": "address",
          "name": "operator",
          "type": "address"
        },
        {
          "internalType": "bool",
          "name": "approved",
          "type": "bool"
        }
      ],
      "name": "setApprovalForAll",
      "outputs": [],
      "stateMutability": "nonpayable",
      "type": "function"
    },
    {
      "inputs": [
        {
          "internalType": "bytes4",
          "name": "interfaceId",
          "type": "bytes4"
        }
      ],
      "name": "supportsInterface",
      "outputs": [
        {
          "internalType": "bool",
          "name": "",
          "type": "bool"
        }
      ],
      "stateMutability": "view",
      "type": "function"
    },
    {
      "inputs": [],
      "name": "symbol",
      "outputs": [
        {
          "internalType": "string",
          "name": "",
          "type": "string"
        }
      ],
      "stateMutability": "view",
      "type": "function"
    },
    {
      "inputs": [
        {
          "internalType": "uint256",
          "name": "index",
          "type": "uint256"
        }
      ],
      "name": "tokenByIndex",
      "outputs": [
        {
          "internalType": "uint256",
          "name": "",
          "type": "uint256"
        }
      ],
      "stateMutability": "view",
      "type": "function"
    },
    {
      "inputs": [
        {
          "internalType": "address",
          "name": "owner",
          "type": "address"
        },
        {
          "internalType": "uint256",
          "name": "index",
          "type": "uint256"
        }
      ],
      "name": "tokenOfOwnerByIndex",
      "outputs": [
        {
          "internalType": "uint256",
          "name": "",
          "type": "uint256"
        }
      ],
      "stateMutability": "view",
      "type": "function"
    },
    {
      "inputs": [
        {
          "internalType": "uint256",
          "name": "tokenId",
          "type": "uint256"
        }
      ],
      "name": "tokenURI",
      "outputs": [
        {
          "internalType": "string",
          "name": "",
          "type": "string"
        }
      ],
      "stateMutability": "view",
      "type": "function"
    },
    {
      "inputs": [],
      "name": "totalSupply",
      "outputs": [
        {
          "internalType": "uint256",
          "name": "",
          "type": "uint256"
        }
      ],
      "stateMutability": "view",
      "type": "function"
    },
    {
      "inputs": [
        {
          "internalType": "address",
          "name": "from",
          "type": "address"
        },
        {
          "internalType": "address",
          "name": "to",
          "type": "address"
        },
        {
          "internalType": "uint256",
          "name": "tokenId",
          "type": "uint256"
        }
      ],
      "name": "transferFrom",
      "outputs": [],
      "stateMutability": "nonpayable",
      "type": "function"
    },
    {
      "inputs": [
        {
          "internalType": "address",
          "name": "newOwner",
          "type": "address"
        }
      ],
      "name": "transferOwnership",
      "outputs": [],
      "stateMutability": "nonpayable",
      "type": "function"
    },
    {
      "inputs": [],
      "name": "transferWindowState",
      "outputs": [],
      "stateMutability": "nonpayable",
      "type": "function"
    },
    {
      "inputs": [],
      "name": "withdraw",
      "outputs": [],
      "stateMutability": "payable",
      "type": "function"
    }
  ],
  "transactionHash": "0xa354c511e25a1ecc7fd1ac653f476df5461b2fe3c3b8c7bfcb781ec76a01a34b",
  "args": [
    10,
    "3889",
    "0x8103B0A8A00be2DDC778e6e7eaa21791Cd364625",
    "0x474e34a077df58807dbe9c96d3c009b23b3c6d0cce433e59bbf5b34f823bc56c"
  ],
  "numDeployments": 4,
  "solcInputHash": "7a737455baec70f4ffad868610217b94",
  "bytecode": "0x61012060405260146011556000601260006101000a81548160ff0219169083600381111562000033576200003262000809565b5b02179055503480156200004557600080fd5b5060405162005f4738038062005f4783398181016040528101906200006b91906200095d565b816040518060400160405280600681526020017f4d4f44454c5300000000000000000000000000000000000000000000000000008152506040518060400160405280600381526020017f4d445300000000000000000000000000000000000000000000000000000000008152508160009081620000e9919062000c3f565b508060019081620000fb919062000c3f565b5050506200011e620001126200073b60201b60201c565b6200074360201b60201c565b8073ffffffffffffffffffffffffffffffffffffffff1660808173ffffffffffffffffffffffffffffffffffffffff16815250505081600f60016101000a81548173ffffffffffffffffffffffffffffffffffffffff021916908373ffffffffffffffffffffffffffffffffffffffff1602179055508060e081815250508267ffffffffffffffff1660c08167ffffffffffffffff16815250506000600f60006101000a81548160ff02191690836001811115620001e157620001e062000809565b5b02179055506203d09063ffffffff166101008163ffffffff16815250508360a081815250506000600c600080815260200190815260200160002090508080600181540180825580915050600190039060005260206000200160006040518060800160405280604c815260200162005d33604c91399091909150908162000268919062000c3f565b508080600181540180825580915050600190039060005260206000200160006040518060800160405280604c815260200162005c4f604c913990919091509081620002b4919062000c3f565b508080600181540180825580915050600190039060005260206000200160006040518060800160405280604c815260200162005bb7604c91399091909150908162000300919062000c3f565b508080600181540180825580915050600190039060005260206000200160006040518060800160405280604c815260200162005ad3604c9139909190915090816200034c919062000c3f565b506000600c60006001815260200190815260200160002090508080600181540180825580915050600190039060005260206000200160006040518060800160405280604c815260200162005d7f604c913990919091509081620003b0919062000c3f565b508080600181540180825580915050600190039060005260206000200160006040518060800160405280604c815260200162005e63604c913990919091509081620003fc919062000c3f565b508080600181540180825580915050600190039060005260206000200160006040518060800160405280604c815260200162005c03604c91399091909150908162000448919062000c3f565b508080600181540180825580915050600190039060005260206000200160006040518060800160405280604c815260200162005a87604c91399091909150908162000494919062000c3f565b506000600c60006002815260200190815260200160002090508080600181540180825580915050600190039060005260206000200160006040518060800160405280604c815260200162005ce7604c913990919091509081620004f8919062000c3f565b508080600181540180825580915050600190039060005260206000200160006040518060800160405280604c815260200162005dcb604c91399091909150908162000544919062000c3f565b508080600181540180825580915050600190039060005260206000200160006040518060800160405280604c815260200162005eaf604c91399091909150908162000590919062000c3f565b508080600181540180825580915050600190039060005260206000200160006040518060800160405280604c815260200162005b6b604c913990919091509081620005dc919062000c3f565b506000600c60006003815260200190815260200160002090508080600181540180825580915050600190039060005260206000200160006040518060800160405280604c815260200162005b1f604c91399091909150908162000640919062000c3f565b508080600181540180825580915050600190039060005260206000200160006040518060800160405280604c815260200162005e17604c9139909190915090816200068c919062000c3f565b508080600181540180825580915050600190039060005260206000200160006040518060800160405280604c815260200162005c9b604c913990919091509081620006d8919062000c3f565b508080600181540180825580915050600190039060005260206000200160006040518060800160405280604c815260200162005efb604c91399091909150908162000724919062000c3f565b506004600d81905550505050505050505062000d26565b600033905090565b6000600b60009054906101000a900473ffffffffffffffffffffffffffffffffffffffff16905081600b60006101000a81548173ffffffffffffffffffffffffffffffffffffffff021916908373ffffffffffffffffffffffffffffffffffffffff1602179055508173ffffffffffffffffffffffffffffffffffffffff168173ffffffffffffffffffffffffffffffffffffffff167f8be0079c531659141344cd1fd0a4f28419497f9722a3daafe3b4186f6b6457e060405160405180910390a35050565b7f4e487b7100000000000000000000000000000000000000000000000000000000600052602160045260246000fd5b600080fd5b6000819050919050565b62000852816200083d565b81146200085e57600080fd5b50565b600081519050620008728162000847565b92915050565b600067ffffffffffffffff82169050919050565b620008978162000878565b8114620008a357600080fd5b50565b600081519050620008b7816200088c565b92915050565b600073ffffffffffffffffffffffffffffffffffffffff82169050919050565b6000620008ea82620008bd565b9050919050565b620008fc81620008dd565b81146200090857600080fd5b50565b6000815190506200091c81620008f1565b92915050565b6000819050919050565b620009378162000922565b81146200094357600080fd5b50565b60008151905062000957816200092c565b92915050565b600080600080608085870312156200097a576200097962000838565b5b60006200098a8782880162000861565b94505060206200099d87828801620008a6565b9350506040620009b0878288016200090b565b9250506060620009c38782880162000946565b91505092959194509250565b600081519050919050565b7f4e487b7100000000000000000000000000000000000000000000000000000000600052604160045260246000fd5b7f4e487b7100000000000000000000000000000000000000000000000000000000600052602260045260246000fd5b6000600282049050600182168062000a5157607f821691505b60208210810362000a675762000a6662000a09565b5b50919050565b60008190508160005260206000209050919050565b60006020601f8301049050919050565b600082821b905092915050565b60006008830262000ad17fffffffffffffffffffffffffffffffffffffffffffffffffffffffffffffffff8262000a92565b62000add868362000a92565b95508019841693508086168417925050509392505050565b6000819050919050565b600062000b2062000b1a62000b14846200083d565b62000af5565b6200083d565b9050919050565b6000819050919050565b62000b3c8362000aff565b62000b5462000b4b8262000b27565b84845462000a9f565b825550505050565b600090565b62000b6b62000b5c565b62000b7881848462000b31565b505050565b5b8181101562000ba05762000b9460008262000b61565b60018101905062000b7e565b5050565b601f82111562000bef5762000bb98162000a6d565b62000bc48462000a82565b8101602085101562000bd4578190505b62000bec62000be38562000a82565b83018262000b7d565b50505b505050565b600082821c905092915050565b600062000c146000198460080262000bf4565b1980831691505092915050565b600062000c2f838362000c01565b9150826002028217905092915050565b62000c4a82620009cf565b67ffffffffffffffff81111562000c665762000c65620009da565b5b62000c72825462000a38565b62000c7f82828562000ba4565b600060209050601f83116001811462000cb7576000841562000ca2578287015190505b62000cae858262000c21565b86555062000d1e565b601f19841662000cc78662000a6d565b60005b8281101562000cf15784890151825560018201915060208501945060208101905062000cca565b8683101562000d11578489015162000d0d601f89168262000c01565b8355505b6001600288020188555050505b505050505050565b60805160a05160c05160e05161010051614d0062000d8760003960008181610c1e0152611913015260006118cf015260006118f0015260008181610a8601528181610f9c015261153d015260008181610afe0152610b520152614d006000f3fe6080604052600436106101ee5760003560e01c806359737ee11161010d578063997dc32e116100a0578063c25c8c9e1161006f578063c25c8c9e1461068a578063c87b56dd146106b5578063e985e9c5146106f2578063f2fde38b1461072f578063f622e7fb14610758576101ee565b8063997dc32e146105d0578063a22cb4651461060d578063ac89d78414610636578063b88d4fde14610661576101ee565b8063715018a6116100dc578063715018a6146105385780637db0b1ff1461054f5780638da5cb5b1461057a57806395d89b41146105a5576101ee565b806359737ee11461046c5780635e1045ec146104955780636352211e146104be57806370a08231146104fb576101ee565b806324f74697116101855780633ccfd60b116101545780633ccfd60b146103f25780633cd29ac8146103fc57806342842e0e146104065780634f6ccce71461042f576101ee565b806324f74697146103485780632f745c59146103735780632fa5cee6146103b057806332871022146103db576101ee565b80631249c58b116101c15780631249c58b146102c157806318160ddd146102cb5780631fe543e3146102f657806323b872dd1461031f576101ee565b806301ffc9a7146101f357806306fdde0314610230578063081812fc1461025b578063095ea7b314610298575b600080fd5b3480156101ff57600080fd5b5061021a6004803603810190610215919061321d565b610783565b6040516102279190613265565b60405180910390f35b34801561023c57600080fd5b50610245610795565b6040516102529190613310565b60405180910390f35b34801561026757600080fd5b50610282600480360381019061027d9190613368565b610827565b60405161028f91906133d6565b60405180910390f35b3480156102a457600080fd5b506102bf60048036038101906102ba919061341d565b61086d565b005b6102c9610984565b005b3480156102d757600080fd5b506102e0610aef565b6040516102ed919061346c565b60405180910390f35b34801561030257600080fd5b5061031d600480360381019061031891906135cf565b610afc565b005b34801561032b57600080fd5b506103466004803603810190610341919061362b565b610bbc565b005b34801561035457600080fd5b5061035d610c1c565b60405161036a919061369d565b60405180910390f35b34801561037f57600080fd5b5061039a6004803603810190610395919061341d565b610c40565b6040516103a7919061346c565b60405180910390f35b3480156103bc57600080fd5b506103c5610ce5565b6040516103d2919061372f565b60405180910390f35b3480156103e757600080fd5b506103f0610cf8565b005b6103fa610d69565b005b610404610e17565b005b34801561041257600080fd5b5061042d6004803603810190610428919061362b565b611005565b005b34801561043b57600080fd5b5061045660048036038101906104519190613368565b611025565b604051610463919061346c565b60405180910390f35b34801561047857600080fd5b50610493600480360381019061048e9190613780565b611096565b005b3480156104a157600080fd5b506104bc60048036038101906104b79190613808565b611247565b005b3480156104ca57600080fd5b506104e560048036038101906104e09190613368565b6112f4565b6040516104f291906133d6565b60405180910390f35b34801561050757600080fd5b50610522600480360381019061051d9190613855565b61137a565b60405161052f919061346c565b60405180910390f35b34801561054457600080fd5b5061054d611431565b005b34801561055b57600080fd5b50610564611445565b6040516105719190613891565b60405180910390f35b34801561058657600080fd5b5061058f61144f565b60405161059c91906133d6565b60405180910390f35b3480156105b157600080fd5b506105ba611479565b6040516105c79190613310565b60405180910390f35b3480156105dc57600080fd5b506105f760048036038101906105f29190613368565b61150b565b604051610604919061346c565b60405180910390f35b34801561061957600080fd5b50610634600480360381019061062f91906138d8565b611523565b005b34801561064257600080fd5b5061064b611539565b604051610658919061346c565b60405180910390f35b34801561066d57600080fd5b50610688600480360381019061068391906139cd565b611561565b005b34801561069657600080fd5b5061069f6115c3565b6040516106ac9190613a98565b60405180910390f35b3480156106c157600080fd5b506106dc60048036038101906106d79190613368565b6115da565b6040516106e99190613310565b60405180910390f35b3480156106fe57600080fd5b5061071960048036038101906107149190613ab3565b6115ec565b6040516107269190613265565b60405180910390f35b34801561073b57600080fd5b5061075660048036038101906107519190613855565b611680565b005b34801561076457600080fd5b5061076d611703565b60405161077a9190613891565b60405180910390f35b600061078e82611709565b9050919050565b6060600080546107a490613b22565b80601f01602080910402602001604051908101604052809291908181526020018280546107d090613b22565b801561081d5780601f106107f25761010080835404028352916020019161081d565b820191906000526020600020905b81548152906001019060200180831161080057829003601f168201915b5050505050905090565b60006108328261176a565b6004600083815260200190815260200160002060009054906101000a900473ffffffffffffffffffffffffffffffffffffffff169050919050565b6000610878826112f4565b90508073ffffffffffffffffffffffffffffffffffffffff168373ffffffffffffffffffffffffffffffffffffffff16036108e8576040517f08c379a00000000000000000000000000000000000000000000000000000000081526004016108df90613bc5565b60405180910390fd5b8073ffffffffffffffffffffffffffffffffffffffff166109076117b5565b73ffffffffffffffffffffffffffffffffffffffff1614806109365750610935816109306117b5565b6115ec565b5b610975576040517f08c379a000000000000000000000000000000000000000000000000000000000815260040161096c90613c57565b60405180910390fd5b61097f83836117bd565b505050565b600180811115610997576109966136b8565b5b600f60009054906101000a900460ff1660018111156109b9576109b86136b8565b5b146109f9576040517f08c379a00000000000000000000000000000000000000000000000000000000081526004016109f090613cc3565b60405180910390fd5b6601c6bf526340003414610a42576040517f08c379a0000000000000000000000000000000000000000000000000000000008152600401610a3990613d55565b60405180910390fd5b6001610a4d3361137a565b10610a84576040517f09a6739300000000000000000000000000000000000000000000000000000000815260040160405180910390fd5b7f0000000000000000000000000000000000000000000000000000000000000000610aad610aef565b10610ae4576040517f913b742100000000000000000000000000000000000000000000000000000000815260040160405180910390fd5b610aec611876565b50565b6000600880549050905090565b7f000000000000000000000000000000000000000000000000000000000000000073ffffffffffffffffffffffffffffffffffffffff163373ffffffffffffffffffffffffffffffffffffffff1614610bae57337f00000000000000000000000000000000000000000000000000000000000000006040517f1cf993f4000000000000000000000000000000000000000000000000000000008152600401610ba5929190613d75565b60405180910390fd5b610bb882826119ec565b5050565b610bcd610bc76117b5565b82611b53565b610c0c576040517f08c379a0000000000000000000000000000000000000000000000000000000008152600401610c0390613e10565b60405180910390fd5b610c17838383611be8565b505050565b7f000000000000000000000000000000000000000000000000000000000000000081565b6000610c4b8361137a565b8210610c8c576040517f08c379a0000000000000000000000000000000000000000000000000000000008152600401610c8390613ea2565b60405180910390fd5b600660008473ffffffffffffffffffffffffffffffffffffffff1673ffffffffffffffffffffffffffffffffffffffff168152602001908152602001600020600083815260200190815260200160002054905092915050565b601260009054906101000a900460ff1681565b610d00611ee1565b60006001811115610d1457610d136136b8565b5b600f60009054906101000a900460ff166001811115610d3657610d356136b8565b5b03610d67576001600f60006101000a81548160ff02191690836001811115610d6157610d606136b8565b5b02179055505b565b610d71611ee1565b60003373ffffffffffffffffffffffffffffffffffffffff1647604051610d9790613ef3565b60006040518083038185875af1925050503d8060008114610dd4576040519150601f19603f3d011682016040523d82523d6000602084013e610dd9565b606091505b5050905080610e14576040517f65a0789500000000000000000000000000000000000000000000000000000000815260040160405180910390fd5b50565b60006001811115610e2b57610e2a6136b8565b5b600f60009054906101000a900460ff166001811115610e4d57610e4c6136b8565b5b14610e8d576040517f08c379a0000000000000000000000000000000000000000000000000000000008152600401610e8490613f54565b60405180910390fd5b655af3107a40003414610ed5576040517f08c379a0000000000000000000000000000000000000000000000000000000008152600401610ecc90613fe6565b60405180910390fd5b600e60003373ffffffffffffffffffffffffffffffffffffffff1673ffffffffffffffffffffffffffffffffffffffff16815260200190815260200160002060009054906101000a900460ff16610f58576040517f404074ce00000000000000000000000000000000000000000000000000000000815260040160405180910390fd5b6001610f633361137a565b10610f9a576040517f09a6739300000000000000000000000000000000000000000000000000000000815260040160405180910390fd5b7f0000000000000000000000000000000000000000000000000000000000000000610fc3610aef565b10610ffa576040517f913b742100000000000000000000000000000000000000000000000000000000815260040160405180910390fd5b611002611876565b50565b61102083838360405180602001604052806000815250611561565b505050565b600061102f610aef565b8210611070576040517f08c379a000000000000000000000000000000000000000000000000000000000815260040161106790614078565b60405180910390fd5b6008828154811061108457611083614098565b5b90600052602060002001549050919050565b6011548114611244578060118190555060006110b182611f5f565b9050601260009054906101000a900460ff1660038111156110d5576110d46136b8565b5b8160038111156110e8576110e76136b8565b5b146112425780601260006101000a81548160ff02191690836003811115611112576111116136b8565b5b02179055506000611121610aef565b905060005b8181101561123f5760006013600083815260200190815260200160002054905061122b82600c6000848152602001908152602001600020601260009054906101000a900460ff16600381111561117f5761117e6136b8565b5b60ff168154811061119357611192614098565b5b9060005260206000200180546111a890613b22565b80601f01602080910402602001604051908101604052809291908181526020018280546111d490613b22565b80156112215780601f106111f657610100808354040283529160200191611221565b820191906000526020600020905b81548152906001019060200180831161120457829003601f168201915b5050505050611fa3565b508080611237906140f6565b915050611126565b50505b505b50565b61124f611ee1565b60005b828290508110156112ef576001600e600085858581811061127657611275614098565b5b905060200201602081019061128b9190613855565b73ffffffffffffffffffffffffffffffffffffffff1673ffffffffffffffffffffffffffffffffffffffff16815260200190815260200160002060006101000a81548160ff02191690831515021790555080806112e7906140f6565b915050611252565b505050565b60008061130083612047565b9050600073ffffffffffffffffffffffffffffffffffffffff168173ffffffffffffffffffffffffffffffffffffffff1603611371576040517f08c379a00000000000000000000000000000000000000000000000000000000081526004016113689061418a565b60405180910390fd5b80915050919050565b60008073ffffffffffffffffffffffffffffffffffffffff168273ffffffffffffffffffffffffffffffffffffffff16036113ea576040517f08c379a00000000000000000000000000000000000000000000000000000000081526004016113e19061421c565b60405180910390fd5b600360008373ffffffffffffffffffffffffffffffffffffffff1673ffffffffffffffffffffffffffffffffffffffff168152602001908152602001600020549050919050565b611439611ee1565b6114436000612084565b565b6000601154905090565b6000600b60009054906101000a900473ffffffffffffffffffffffffffffffffffffffff16905090565b60606001805461148890613b22565b80601f01602080910402602001604051908101604052809291908181526020018280546114b490613b22565b80156115015780601f106114d657610100808354040283529160200191611501565b820191906000526020600020905b8154815290600101906020018083116114e457829003601f168201915b5050505050905090565b60106020528060005260406000206000915090505481565b61153561152e6117b5565b838361214a565b5050565b60007f0000000000000000000000000000000000000000000000000000000000000000905090565b61157261156c6117b5565b83611b53565b6115b1576040517f08c379a00000000000000000000000000000000000000000000000000000000081526004016115a890613e10565b60405180910390fd5b6115bd848484846122b6565b50505050565b6000600f60009054906101000a900460ff16905090565b60606115e582612312565b9050919050565b6000600560008473ffffffffffffffffffffffffffffffffffffffff1673ffffffffffffffffffffffffffffffffffffffff16815260200190815260200160002060008373ffffffffffffffffffffffffffffffffffffffff1673ffffffffffffffffffffffffffffffffffffffff16815260200190815260200160002060009054906101000a900460ff16905092915050565b611688611ee1565b600073ffffffffffffffffffffffffffffffffffffffff168173ffffffffffffffffffffffffffffffffffffffff16036116f7576040517f08c379a00000000000000000000000000000000000000000000000000000000081526004016116ee906142ae565b60405180910390fd5b61170081612084565b50565b60115481565b6000634906490660e01b7bffffffffffffffffffffffffffffffffffffffffffffffffffffffff1916827bffffffffffffffffffffffffffffffffffffffffffffffffffffffff19161480611763575061176282612424565b5b9050919050565b6117738161249e565b6117b2576040517f08c379a00000000000000000000000000000000000000000000000000000000081526004016117a99061418a565b60405180910390fd5b50565b600033905090565b816004600083815260200190815260200160002060006101000a81548173ffffffffffffffffffffffffffffffffffffffff021916908373ffffffffffffffffffffffffffffffffffffffff160217905550808273ffffffffffffffffffffffffffffffffffffffff16611830836112f4565b73ffffffffffffffffffffffffffffffffffffffff167f8c5be1e5ebec7d5bd14f71427d1e84f3dd0314c0f7b2291e5b200ac8c7c3b92560405160405180910390a45050565b60008061188360146124df565b905061188f60146124ed565b600f60019054906101000a900473ffffffffffffffffffffffffffffffffffffffff1673ffffffffffffffffffffffffffffffffffffffff16635d3b1d307f00000000000000000000000000000000000000000000000000000000000000007f000000000000000000000000000000000000000000000000000000000000000060037f000000000000000000000000000000000000000000000000000000000000000060016040518663ffffffff1660e01b8152600401611954959493929190614327565b6020604051808303816000875af1158015611973573d6000803e3d6000fd5b505050506040513d601f19601f82011682018060405250810190611997919061438f565b91506119a33382612503565b806010600084815260200190815260200160002081905550817f7b0e05fbeb1edccdd44bd586d531628f90b83bc34de187a0b063ef548a779ac060405160405180910390a25090565b6000600d5482600081518110611a0557611a04614098565b5b6020026020010151611a1791906143eb565b9050600060106000858152602001908152602001600020549050816013600083815260200190815260200160002081905550611b2081600c600085815260200190815260200160002060006003811115611a7457611a736136b8565b5b60ff1681548110611a8857611a87614098565b5b906000526020600020018054611a9d90613b22565b80601f0160208091040260200160405190810160405280929190818152602001828054611ac990613b22565b8015611b165780601f10611aeb57610100808354040283529160200191611b16565b820191906000526020600020905b815481529060010190602001808311611af957829003601f168201915b5050505050611fa3565b837fdd779ccd34929e417fc56a3ffb2acea0e3ce9ff756ef2107f4a75b6b00132aeb60405160405180910390a250505050565b600080611b5f836112f4565b90508073ffffffffffffffffffffffffffffffffffffffff168473ffffffffffffffffffffffffffffffffffffffff161480611ba15750611ba081856115ec565b5b80611bdf57508373ffffffffffffffffffffffffffffffffffffffff16611bc784610827565b73ffffffffffffffffffffffffffffffffffffffff16145b91505092915050565b8273ffffffffffffffffffffffffffffffffffffffff16611c08826112f4565b73ffffffffffffffffffffffffffffffffffffffff1614611c5e576040517f08c379a0000000000000000000000000000000000000000000000000000000008152600401611c559061448e565b60405180910390fd5b600073ffffffffffffffffffffffffffffffffffffffff168273ffffffffffffffffffffffffffffffffffffffff1603611ccd576040517f08c379a0000000000000000000000000000000000000000000000000000000008152600401611cc490614520565b60405180910390fd5b611cda8383836001612521565b8273ffffffffffffffffffffffffffffffffffffffff16611cfa826112f4565b73ffffffffffffffffffffffffffffffffffffffff1614611d50576040517f08c379a0000000000000000000000000000000000000000000000000000000008152600401611d479061448e565b60405180910390fd5b6004600082815260200190815260200160002060006101000a81549073ffffffffffffffffffffffffffffffffffffffff02191690556001600360008573ffffffffffffffffffffffffffffffffffffffff1673ffffffffffffffffffffffffffffffffffffffff168152602001908152602001600020600082825403925050819055506001600360008473ffffffffffffffffffffffffffffffffffffffff1673ffffffffffffffffffffffffffffffffffffffff16815260200190815260200160002060008282540192505081905550816002600083815260200190815260200160002060006101000a81548173ffffffffffffffffffffffffffffffffffffffff021916908373ffffffffffffffffffffffffffffffffffffffff160217905550808273ffffffffffffffffffffffffffffffffffffffff168473ffffffffffffffffffffffffffffffffffffffff167fddf252ad1be2c89b69c2b068fc378daa952ba7f163c4a11628f55a4df523b3ef60405160405180910390a4611edc8383836001612533565b505050565b611ee96117b5565b73ffffffffffffffffffffffffffffffffffffffff16611f0761144f565b73ffffffffffffffffffffffffffffffffffffffff1614611f5d576040517f08c379a0000000000000000000000000000000000000000000000000000000008152600401611f549061458c565b60405180910390fd5b565b6000610bb88212611f735760019050611f9e565b6105dc821315611f865760009050611f9e565b6101f4821315611f995760029050611f9e565b600390505b919050565b611fac8261249e565b611feb576040517f08c379a0000000000000000000000000000000000000000000000000000000008152600401611fe29061461e565b60405180910390fd5b80600a6000848152602001908152602001600020908161200b91906147ea565b507ff8e1a15aba9398e019f0b49df1a4fde98ee17ae345cb5f6b5e2c27f5033e8ce78260405161203b919061346c565b60405180910390a15050565b60006002600083815260200190815260200160002060009054906101000a900473ffffffffffffffffffffffffffffffffffffffff169050919050565b6000600b60009054906101000a900473ffffffffffffffffffffffffffffffffffffffff16905081600b60006101000a81548173ffffffffffffffffffffffffffffffffffffffff021916908373ffffffffffffffffffffffffffffffffffffffff1602179055508173ffffffffffffffffffffffffffffffffffffffff168173ffffffffffffffffffffffffffffffffffffffff167f8be0079c531659141344cd1fd0a4f28419497f9722a3daafe3b4186f6b6457e060405160405180910390a35050565b8173ffffffffffffffffffffffffffffffffffffffff168373ffffffffffffffffffffffffffffffffffffffff16036121b8576040517f08c379a00000000000000000000000000000000000000000000000000000000081526004016121af90614908565b60405180910390fd5b80600560008573ffffffffffffffffffffffffffffffffffffffff1673ffffffffffffffffffffffffffffffffffffffff16815260200190815260200160002060008473ffffffffffffffffffffffffffffffffffffffff1673ffffffffffffffffffffffffffffffffffffffff16815260200190815260200160002060006101000a81548160ff0219169083151502179055508173ffffffffffffffffffffffffffffffffffffffff168373ffffffffffffffffffffffffffffffffffffffff167f17307eab39ab6107e8899845ad3d59bd9653f200f220920489ca2b5937696c31836040516122a99190613265565b60405180910390a3505050565b6122c1848484611be8565b6122cd84848484612539565b61230c576040517f08c379a00000000000000000000000000000000000000000000000000000000081526004016123039061499a565b60405180910390fd5b50505050565b606061231d8261176a565b6000600a6000848152602001908152602001600020805461233d90613b22565b80601f016020809104026020016040519081016040528092919081815260200182805461236990613b22565b80156123b65780601f1061238b576101008083540402835291602001916123b6565b820191906000526020600020905b81548152906001019060200180831161239957829003601f168201915b5050505050905060006123c76126c0565b905060008151036123dc57819250505061241f565b6000825111156124115780826040516020016123f99291906149f6565b6040516020818303038152906040529250505061241f565b61241a846126d7565b925050505b919050565b60007f780e9d63000000000000000000000000000000000000000000000000000000007bffffffffffffffffffffffffffffffffffffffffffffffffffffffff1916827bffffffffffffffffffffffffffffffffffffffffffffffffffffffff1916148061249757506124968261273f565b5b9050919050565b60008073ffffffffffffffffffffffffffffffffffffffff166124c083612047565b73ffffffffffffffffffffffffffffffffffffffff1614159050919050565b600081600001549050919050565b6001816000016000828254019250508190555050565b61251d828260405180602001604052806000815250612821565b5050565b61252d8484848461287c565b50505050565b50505050565b600061255a8473ffffffffffffffffffffffffffffffffffffffff166129da565b156126b3578373ffffffffffffffffffffffffffffffffffffffff1663150b7a026125836117b5565b8786866040518563ffffffff1660e01b81526004016125a59493929190614a6f565b6020604051808303816000875af19250505080156125e157506040513d601f19601f820116820180604052508101906125de9190614ad0565b60015b612663573d8060008114612611576040519150601f19603f3d011682016040523d82523d6000602084013e612616565b606091505b50600081510361265b576040517f08c379a00000000000000000000000000000000000000000000000000000000081526004016126529061499a565b60405180910390fd5b805181602001fd5b63150b7a0260e01b7bffffffffffffffffffffffffffffffffffffffffffffffffffffffff1916817bffffffffffffffffffffffffffffffffffffffffffffffffffffffff1916149150506126b8565b600190505b949350505050565b606060405180602001604052806000815250905090565b60606126e28261176a565b60006126ec6126c0565b9050600081511161270c5760405180602001604052806000815250612737565b80612716846129fd565b6040516020016127279291906149f6565b6040516020818303038152906040525b915050919050565b60007f80ac58cd000000000000000000000000000000000000000000000000000000007bffffffffffffffffffffffffffffffffffffffffffffffffffffffff1916827bffffffffffffffffffffffffffffffffffffffffffffffffffffffff1916148061280a57507f5b5e139f000000000000000000000000000000000000000000000000000000007bffffffffffffffffffffffffffffffffffffffffffffffffffffffff1916827bffffffffffffffffffffffffffffffffffffffffffffffffffffffff1916145b8061281a575061281982612acb565b5b9050919050565b61282b8383612b35565b6128386000848484612539565b612877576040517f08c379a000000000000000000000000000000000000000000000000000000000815260040161286e9061499a565b60405180910390fd5b505050565b61288884848484612d52565b60018111156128cc576040517f08c379a00000000000000000000000000000000000000000000000000000000081526004016128c390614b6f565b60405180910390fd5b6000829050600073ffffffffffffffffffffffffffffffffffffffff168573ffffffffffffffffffffffffffffffffffffffff16036129135761290e81612d58565b612952565b8373ffffffffffffffffffffffffffffffffffffffff168573ffffffffffffffffffffffffffffffffffffffff1614612951576129508582612da1565b5b5b600073ffffffffffffffffffffffffffffffffffffffff168473ffffffffffffffffffffffffffffffffffffffff16036129945761298f81612f0e565b6129d3565b8473ffffffffffffffffffffffffffffffffffffffff168473ffffffffffffffffffffffffffffffffffffffff16146129d2576129d18482612fdf565b5b5b5050505050565b6000808273ffffffffffffffffffffffffffffffffffffffff163b119050919050565b606060006001612a0c8461305e565b01905060008167ffffffffffffffff811115612a2b57612a2a61348c565b5b6040519080825280601f01601f191660200182016040528015612a5d5781602001600182028036833780820191505090505b509050600082602001820190505b600115612ac0578080600190039150507f3031323334353637383961626364656600000000000000000000000000000000600a86061a8153600a8581612ab457612ab36143bc565b5b04945060008503612a6b575b819350505050919050565b60007f01ffc9a7000000000000000000000000000000000000000000000000000000007bffffffffffffffffffffffffffffffffffffffffffffffffffffffff1916827bffffffffffffffffffffffffffffffffffffffffffffffffffffffff1916149050919050565b600073ffffffffffffffffffffffffffffffffffffffff168273ffffffffffffffffffffffffffffffffffffffff1603612ba4576040517f08c379a0000000000000000000000000000000000000000000000000000000008152600401612b9b90614bdb565b60405180910390fd5b612bad8161249e565b15612bed576040517f08c379a0000000000000000000000000000000000000000000000000000000008152600401612be490614c47565b60405180910390fd5b612bfb600083836001612521565b612c048161249e565b15612c44576040517f08c379a0000000000000000000000000000000000000000000000000000000008152600401612c3b90614c47565b60405180910390fd5b6001600360008473ffffffffffffffffffffffffffffffffffffffff1673ffffffffffffffffffffffffffffffffffffffff16815260200190815260200160002060008282540192505081905550816002600083815260200190815260200160002060006101000a81548173ffffffffffffffffffffffffffffffffffffffff021916908373ffffffffffffffffffffffffffffffffffffffff160217905550808273ffffffffffffffffffffffffffffffffffffffff16600073ffffffffffffffffffffffffffffffffffffffff167fddf252ad1be2c89b69c2b068fc378daa952ba7f163c4a11628f55a4df523b3ef60405160405180910390a4612d4e600083836001612533565b5050565b50505050565b6008805490506009600083815260200190815260200160002081905550600881908060018154018082558091505060019003906000526020600020016000909190919091505550565b60006001612dae8461137a565b612db89190614c67565b9050600060076000848152602001908152602001600020549050818114612e9d576000600660008673ffffffffffffffffffffffffffffffffffffffff1673ffffffffffffffffffffffffffffffffffffffff168152602001908152602001600020600084815260200190815260200160002054905080600660008773ffffffffffffffffffffffffffffffffffffffff1673ffffffffffffffffffffffffffffffffffffffff168152602001908152602001600020600084815260200190815260200160002081905550816007600083815260200190815260200160002081905550505b6007600084815260200190815260200160002060009055600660008573ffffffffffffffffffffffffffffffffffffffff1673ffffffffffffffffffffffffffffffffffffffff16815260200190815260200160002060008381526020019081526020016000206000905550505050565b60006001600880549050612f229190614c67565b9050600060096000848152602001908152602001600020549050600060088381548110612f5257612f51614098565b5b906000526020600020015490508060088381548110612f7457612f73614098565b5b906000526020600020018190555081600960008381526020019081526020016000208190555060096000858152602001908152602001600020600090556008805480612fc357612fc2614c9b565b5b6001900381819060005260206000200160009055905550505050565b6000612fea8361137a565b905081600660008573ffffffffffffffffffffffffffffffffffffffff1673ffffffffffffffffffffffffffffffffffffffff168152602001908152602001600020600083815260200190815260200160002081905550806007600084815260200190815260200160002081905550505050565b600080600090507a184f03e93ff9f4daa797ed6e38ed64bf6a1f01000000000000000083106130bc577a184f03e93ff9f4daa797ed6e38ed64bf6a1f01000000000000000083816130b2576130b16143bc565b5b0492506040810190505b6d04ee2d6d415b85acef810000000083106130f9576d04ee2d6d415b85acef810000000083816130ef576130ee6143bc565b5b0492506020810190505b662386f26fc10000831061312857662386f26fc10000838161311e5761311d6143bc565b5b0492506010810190505b6305f5e1008310613151576305f5e1008381613147576131466143bc565b5b0492506008810190505b612710831061317657612710838161316c5761316b6143bc565b5b0492506004810190505b60648310613199576064838161318f5761318e6143bc565b5b0492506002810190505b600a83106131a8576001810190505b80915050919050565b6000604051905090565b600080fd5b600080fd5b60007fffffffff0000000000000000000000000000000000000000000000000000000082169050919050565b6131fa816131c5565b811461320557600080fd5b50565b600081359050613217816131f1565b92915050565b600060208284031215613233576132326131bb565b5b600061324184828501613208565b91505092915050565b60008115159050919050565b61325f8161324a565b82525050565b600060208201905061327a6000830184613256565b92915050565b600081519050919050565b600082825260208201905092915050565b60005b838110156132ba57808201518184015260208101905061329f565b60008484015250505050565b6000601f19601f8301169050919050565b60006132e282613280565b6132ec818561328b565b93506132fc81856020860161329c565b613305816132c6565b840191505092915050565b6000602082019050818103600083015261332a81846132d7565b905092915050565b6000819050919050565b61334581613332565b811461335057600080fd5b50565b6000813590506133628161333c565b92915050565b60006020828403121561337e5761337d6131bb565b5b600061338c84828501613353565b91505092915050565b600073ffffffffffffffffffffffffffffffffffffffff82169050919050565b60006133c082613395565b9050919050565b6133d0816133b5565b82525050565b60006020820190506133eb60008301846133c7565b92915050565b6133fa816133b5565b811461340557600080fd5b50565b600081359050613417816133f1565b92915050565b60008060408385031215613434576134336131bb565b5b600061344285828601613408565b925050602061345385828601613353565b9150509250929050565b61346681613332565b82525050565b6000602082019050613481600083018461345d565b92915050565b600080fd5b7f4e487b7100000000000000000000000000000000000000000000000000000000600052604160045260246000fd5b6134c4826132c6565b810181811067ffffffffffffffff821117156134e3576134e261348c565b5b80604052505050565b60006134f66131b1565b905061350282826134bb565b919050565b600067ffffffffffffffff8211156135225761352161348c565b5b602082029050602081019050919050565b600080fd5b600061354b61354684613507565b6134ec565b9050808382526020820190506020840283018581111561356e5761356d613533565b5b835b8181101561359757806135838882613353565b845260208401935050602081019050613570565b5050509392505050565b600082601f8301126135b6576135b5613487565b5b81356135c6848260208601613538565b91505092915050565b600080604083850312156135e6576135e56131bb565b5b60006135f485828601613353565b925050602083013567ffffffffffffffff811115613615576136146131c0565b5b613621858286016135a1565b9150509250929050565b600080600060608486031215613644576136436131bb565b5b600061365286828701613408565b935050602061366386828701613408565b925050604061367486828701613353565b9150509250925092565b600063ffffffff82169050919050565b6136978161367e565b82525050565b60006020820190506136b2600083018461368e565b92915050565b7f4e487b7100000000000000000000000000000000000000000000000000000000600052602160045260246000fd5b600481106136f8576136f76136b8565b5b50565b6000819050613709826136e7565b919050565b6000613719826136fb565b9050919050565b6137298161370e565b82525050565b60006020820190506137446000830184613720565b92915050565b6000819050919050565b61375d8161374a565b811461376857600080fd5b50565b60008135905061377a81613754565b92915050565b600060208284031215613796576137956131bb565b5b60006137a48482850161376b565b91505092915050565b600080fd5b60008083601f8401126137c8576137c7613487565b5b8235905067ffffffffffffffff8111156137e5576137e46137ad565b5b60208301915083602082028301111561380157613800613533565b5b9250929050565b6000806020838503121561381f5761381e6131bb565b5b600083013567ffffffffffffffff81111561383d5761383c6131c0565b5b613849858286016137b2565b92509250509250929050565b60006020828403121561386b5761386a6131bb565b5b600061387984828501613408565b91505092915050565b61388b8161374a565b82525050565b60006020820190506138a66000830184613882565b92915050565b6138b58161324a565b81146138c057600080fd5b50565b6000813590506138d2816138ac565b92915050565b600080604083850312156138ef576138ee6131bb565b5b60006138fd85828601613408565b925050602061390e858286016138c3565b9150509250929050565b600080fd5b600067ffffffffffffffff8211156139385761393761348c565b5b613941826132c6565b9050602081019050919050565b82818337600083830152505050565b600061397061396b8461391d565b6134ec565b90508281526020810184848401111561398c5761398b613918565b5b61399784828561394e565b509392505050565b600082601f8301126139b4576139b3613487565b5b81356139c484826020860161395d565b91505092915050565b600080600080608085870312156139e7576139e66131bb565b5b60006139f587828801613408565b9450506020613a0687828801613408565b9350506040613a1787828801613353565b925050606085013567ffffffffffffffff811115613a3857613a376131c0565b5b613a448782880161399f565b91505092959194509250565b60028110613a6157613a606136b8565b5b50565b6000819050613a7282613a50565b919050565b6000613a8282613a64565b9050919050565b613a9281613a77565b82525050565b6000602082019050613aad6000830184613a89565b92915050565b60008060408385031215613aca57613ac96131bb565b5b6000613ad885828601613408565b9250506020613ae985828601613408565b9150509250929050565b7f4e487b7100000000000000000000000000000000000000000000000000000000600052602260045260246000fd5b60006002820490506001821680613b3a57607f821691505b602082108103613b4d57613b4c613af3565b5b50919050565b7f4552433732313a20617070726f76616c20746f2063757272656e74206f776e6560008201527f7200000000000000000000000000000000000000000000000000000000000000602082015250565b6000613baf60218361328b565b9150613bba82613b53565b604082019050919050565b60006020820190508181036000830152613bde81613ba2565b9050919050565b7f4552433732313a20617070726f76652063616c6c6572206973206e6f7420746f60008201527f6b656e206f776e6572206f7220617070726f76656420666f7220616c6c000000602082015250565b6000613c41603d8361328b565b9150613c4c82613be5565b604082019050919050565b60006020820190508181036000830152613c7081613c34565b9050919050565b7f4d696e7420686173206e6f74206f70656e656420796574210000000000000000600082015250565b6000613cad60188361328b565b9150613cb882613c77565b602082019050919050565b60006020820190508181036000830152613cdc81613ca0565b9050919050565b7f20546865207072696365206f662065616368204d445320697320302e3030303560008201527f2065746865722e00000000000000000000000000000000000000000000000000602082015250565b6000613d3f60278361328b565b9150613d4a82613ce3565b604082019050919050565b60006020820190508181036000830152613d6e81613d32565b9050919050565b6000604082019050613d8a60008301856133c7565b613d9760208301846133c7565b9392505050565b7f4552433732313a2063616c6c6572206973206e6f7420746f6b656e206f776e6560008201527f72206f7220617070726f76656400000000000000000000000000000000000000602082015250565b6000613dfa602d8361328b565b9150613e0582613d9e565b604082019050919050565b60006020820190508181036000830152613e2981613ded565b9050919050565b7f455243373231456e756d657261626c653a206f776e657220696e646578206f7560008201527f74206f6620626f756e6473000000000000000000000000000000000000000000602082015250565b6000613e8c602b8361328b565b9150613e9782613e30565b604082019050919050565b60006020820190508181036000830152613ebb81613e7f565b9050919050565b600081905092915050565b50565b6000613edd600083613ec2565b9150613ee882613ecd565b600082019050919050565b6000613efe82613ed0565b9150819050919050565b7f5072654d696e7420686173206e6f74206f70656e656420796574210000000000600082015250565b6000613f3e601b8361328b565b9150613f4982613f08565b602082019050919050565b60006020820190508181036000830152613f6d81613f31565b9050919050565b7f20546865207072696365206f662065616368204d445320697320302e3030303160008201527f2065746865722e00000000000000000000000000000000000000000000000000602082015250565b6000613fd060278361328b565b9150613fdb82613f74565b604082019050919050565b60006020820190508181036000830152613fff81613fc3565b9050919050565b7f455243373231456e756d657261626c653a20676c6f62616c20696e646578206f60008201527f7574206f6620626f756e64730000000000000000000000000000000000000000602082015250565b6000614062602c8361328b565b915061406d82614006565b604082019050919050565b6000602082019050818103600083015261409181614055565b9050919050565b7f4e487b7100000000000000000000000000000000000000000000000000000000600052603260045260246000fd5b7f4e487b7100000000000000000000000000000000000000000000000000000000600052601160045260246000fd5b600061410182613332565b91507fffffffffffffffffffffffffffffffffffffffffffffffffffffffffffffffff8203614133576141326140c7565b5b600182019050919050565b7f4552433732313a20696e76616c696420746f6b656e2049440000000000000000600082015250565b600061417460188361328b565b915061417f8261413e565b602082019050919050565b600060208201905081810360008301526141a381614167565b9050919050565b7f4552433732313a2061646472657373207a65726f206973206e6f74206120766160008201527f6c6964206f776e65720000000000000000000000000000000000000000000000602082015250565b600061420660298361328b565b9150614211826141aa565b604082019050919050565b60006020820190508181036000830152614235816141f9565b9050919050565b7f4f776e61626c653a206e6577206f776e657220697320746865207a65726f206160008201527f6464726573730000000000000000000000000000000000000000000000000000602082015250565b600061429860268361328b565b91506142a38261423c565b604082019050919050565b600060208201905081810360008301526142c78161428b565b9050919050565b6000819050919050565b6142e1816142ce565b82525050565b600067ffffffffffffffff82169050919050565b614304816142e7565b82525050565b600061ffff82169050919050565b6143218161430a565b82525050565b600060a08201905061433c60008301886142d8565b61434960208301876142fb565b6143566040830186614318565b614363606083018561368e565b614370608083018461368e565b9695505050505050565b6000815190506143898161333c565b92915050565b6000602082840312156143a5576143a46131bb565b5b60006143b38482850161437a565b91505092915050565b7f4e487b7100000000000000000000000000000000000000000000000000000000600052601260045260246000fd5b60006143f682613332565b915061440183613332565b925082614411576144106143bc565b5b828206905092915050565b7f4552433732313a207472616e736665722066726f6d20696e636f72726563742060008201527f6f776e6572000000000000000000000000000000000000000000000000000000602082015250565b600061447860258361328b565b91506144838261441c565b604082019050919050565b600060208201905081810360008301526144a78161446b565b9050919050565b7f4552433732313a207472616e7366657220746f20746865207a65726f2061646460008201527f7265737300000000000000000000000000000000000000000000000000000000602082015250565b600061450a60248361328b565b9150614515826144ae565b604082019050919050565b60006020820190508181036000830152614539816144fd565b9050919050565b7f4f776e61626c653a2063616c6c6572206973206e6f7420746865206f776e6572600082015250565b600061457660208361328b565b915061458182614540565b602082019050919050565b600060208201905081810360008301526145a581614569565b9050919050565b7f45524337323155524953746f726167653a2055524920736574206f66206e6f6e60008201527f6578697374656e7420746f6b656e000000000000000000000000000000000000602082015250565b6000614608602e8361328b565b9150614613826145ac565b604082019050919050565b60006020820190508181036000830152614637816145fb565b9050919050565b60008190508160005260206000209050919050565b60006020601f8301049050919050565b600082821b905092915050565b6000600883026146a07fffffffffffffffffffffffffffffffffffffffffffffffffffffffffffffffff82614663565b6146aa8683614663565b95508019841693508086168417925050509392505050565b6000819050919050565b60006146e76146e26146dd84613332565b6146c2565b613332565b9050919050565b6000819050919050565b614701836146cc565b61471561470d826146ee565b848454614670565b825550505050565b600090565b61472a61471d565b6147358184846146f8565b505050565b5b818110156147595761474e600082614722565b60018101905061473b565b5050565b601f82111561479e5761476f8161463e565b61477884614653565b81016020851015614787578190505b61479b61479385614653565b83018261473a565b50505b505050565b600082821c905092915050565b60006147c1600019846008026147a3565b1980831691505092915050565b60006147da83836147b0565b9150826002028217905092915050565b6147f382613280565b67ffffffffffffffff81111561480c5761480b61348c565b5b6148168254613b22565b61482182828561475d565b600060209050601f8311600181146148545760008415614842578287015190505b61484c85826147ce565b8655506148b4565b601f1984166148628661463e565b60005b8281101561488a57848901518255600182019150602085019450602081019050614865565b868310156148a757848901516148a3601f8916826147b0565b8355505b6001600288020188555050505b505050505050565b7f4552433732313a20617070726f766520746f2063616c6c657200000000000000600082015250565b60006148f260198361328b565b91506148fd826148bc565b602082019050919050565b60006020820190508181036000830152614921816148e5565b9050919050565b7f4552433732313a207472616e7366657220746f206e6f6e20455243373231526560008201527f63656976657220696d706c656d656e7465720000000000000000000000000000602082015250565b600061498460328361328b565b915061498f82614928565b604082019050919050565b600060208201905081810360008301526149b381614977565b9050919050565b600081905092915050565b60006149d082613280565b6149da81856149ba565b93506149ea81856020860161329c565b80840191505092915050565b6000614a0282856149c5565b9150614a0e82846149c5565b91508190509392505050565b600081519050919050565b600082825260208201905092915050565b6000614a4182614a1a565b614a4b8185614a25565b9350614a5b81856020860161329c565b614a64816132c6565b840191505092915050565b6000608082019050614a8460008301876133c7565b614a9160208301866133c7565b614a9e604083018561345d565b8181036060830152614ab08184614a36565b905095945050505050565b600081519050614aca816131f1565b92915050565b600060208284031215614ae657614ae56131bb565b5b6000614af484828501614abb565b91505092915050565b7f455243373231456e756d657261626c653a20636f6e736563757469766520747260008201527f616e7366657273206e6f7420737570706f727465640000000000000000000000602082015250565b6000614b5960358361328b565b9150614b6482614afd565b604082019050919050565b60006020820190508181036000830152614b8881614b4c565b9050919050565b7f4552433732313a206d696e7420746f20746865207a65726f2061646472657373600082015250565b6000614bc560208361328b565b9150614bd082614b8f565b602082019050919050565b60006020820190508181036000830152614bf481614bb8565b9050919050565b7f4552433732313a20746f6b656e20616c7265616479206d696e74656400000000600082015250565b6000614c31601c8361328b565b9150614c3c82614bfb565b602082019050919050565b60006020820190508181036000830152614c6081614c24565b9050919050565b6000614c7282613332565b9150614c7d83613332565b9250828203905081811115614c9557614c946140c7565b5b92915050565b7f4e487b7100000000000000000000000000000000000000000000000000000000600052603160045260246000fdfea264697066735822122034a0a978c158e21f7725505e6aab13a091c72ed79cc95edeb3f69d38a40314aa64736f6c6343000813003368747470733a2f2f697066732e66696c65626173652e696f2f697066732f516d626a337a74627651713250416b43637265565a664274313639396344537257775a524e39435643657a66594168747470733a2f2f697066732e66696c65626173652e696f2f697066732f516d61464c36695951324b765946735644456663414b67334170645837476331416d66527a6e756155364359507968747470733a2f2f697066732e66696c65626173652e696f2f697066732f516d664c563677514468386b435a78554d377359684b38426456727a4a32664b374755476670764874587847504168747470733a2f2f697066732e66696c65626173652e696f2f697066732f516d504c6459384d653431363138576861714c69636b707758727a59783576504869656e454c6842624a7439686a68747470733a2f2f697066732e66696c65626173652e696f2f697066732f516d527333664e4770776b5866596b636f6a44725638696e70334e4757415839436a343159313332315a54706f4c68747470733a2f2f697066732e66696c65626173652e696f2f697066732f516d5a4e5a394a685348315a3236734d704d627a43426633567a506f676b444d7475585757533963656235664e7868747470733a2f2f697066732e66696c65626173652e696f2f697066732f516d627333516347614b616f397050737a7a75597173725568454b43366e6831735851725052597070326678334768747470733a2f2f697066732e66696c65626173652e696f2f697066732f516d536e5a543333416b6d4775554579724d66365038716a4656374e376f7562416a53766832426645694856417668747470733a2f2f697066732e66696c65626173652e696f2f697066732f516d56737568536d5235426d75614e436768557658334233393779794b484e6b533550574d4b79436273326d616a68747470733a2f2f697066732e66696c65626173652e696f2f697066732f516d52615953487250794b79764d627457476839574345516b71626752745668337750657a4b7a77426b4d57584c68747470733a2f2f697066732e66696c65626173652e696f2f697066732f516d5633334a6b52526d524a56797835634d4a4d7364686a4c466d68467163654e4e696458515651346e3539634568747470733a2f2f697066732e66696c65626173652e696f2f697066732f516d5834534c7334534157706b3252537444787732396d7a6b4d5a77446b65456a4b46785a714575686f586f397668747470733a2f2f697066732e66696c65626173652e696f2f697066732f516d5952647771466f3370314545445a754a66394d425175464e634e487570397a44373531575141614253534d3168747470733a2f2f697066732e66696c65626173652e696f2f697066732f516d544150415050757a387835754466564159647171755838614b314d6f7a4b6747796a7a59446168334c35737068747470733a2f2f697066732e66696c65626173652e696f2f697066732f516d546833465436735465394b6644567636315a66334a33517939594650346d363955475a64645a3464654b4e6968747470733a2f2f697066732e66696c65626173652e696f2f697066732f516d5942466b54445264686b367148684850455176455254643744414678703566656352654e5878694555557337",
  "devdoc": {
    "events": {
      "Approval(address,address,uint256)": {
        "details": "Emitted when `owner` enables `approved` to manage the `tokenId` token."
      },
      "ApprovalForAll(address,address,bool)": {
        "details": "Emitted when `owner` enables or disables (`approved`) `operator` to manage all of its assets."
      },
      "BatchMetadataUpdate(uint256,uint256)": {
        "details": "This event emits when the metadata of a range of tokens is changed. So that the third-party platforms such as NFT market could timely update the images and related attributes of the NFTs."
      },
      "MetadataUpdate(uint256)": {
        "details": "This event emits when the metadata of a token is changed. So that the third-party platforms such as NFT market could timely update the images and related attributes of the NFT."
      },
      "Transfer(address,address,uint256)": {
        "details": "Emitted when `tokenId` token is transferred from `from` to `to`."
      }
    },
    "kind": "dev",
    "methods": {
      "approve(address,uint256)": {
        "details": "See {IERC721-approve}."
      },
      "balanceOf(address)": {
        "details": "See {IERC721-balanceOf}."
      },
      "getApproved(uint256)": {
        "details": "See {IERC721-getApproved}."
      },
      "isApprovedForAll(address,address)": {
        "details": "See {IERC721-isApprovedForAll}."
      },
      "name()": {
        "details": "See {IERC721Metadata-name}."
      },
      "owner()": {
        "details": "Returns the address of the current owner."
      },
      "ownerOf(uint256)": {
        "details": "See {IERC721-ownerOf}."
      },
      "renounceOwnership()": {
        "details": "Leaves the contract without owner. It will not be possible to call `onlyOwner` functions. Can only be called by the current owner. NOTE: Renouncing ownership will leave the contract without an owner, thereby disabling any functionality that is only available to the owner."
      },
      "safeTransferFrom(address,address,uint256)": {
        "details": "See {IERC721-safeTransferFrom}."
      },
      "safeTransferFrom(address,address,uint256,bytes)": {
        "details": "See {IERC721-safeTransferFrom}."
      },
      "setApprovalForAll(address,bool)": {
        "details": "See {IERC721-setApprovalForAll}."
      },
      "symbol()": {
        "details": "See {IERC721Metadata-symbol}."
      },
      "tokenByIndex(uint256)": {
        "details": "See {IERC721Enumerable-tokenByIndex}."
      },
      "tokenOfOwnerByIndex(address,uint256)": {
        "details": "See {IERC721Enumerable-tokenOfOwnerByIndex}."
      },
      "totalSupply()": {
        "details": "See {IERC721Enumerable-totalSupply}."
      },
      "transferFrom(address,address,uint256)": {
        "details": "See {IERC721-transferFrom}."
      },
      "transferOwnership(address)": {
        "details": "Transfers ownership of the contract to a new account (`newOwner`). Can only be called by the current owner."
      }
    },
    "version": 1
  },
  "userdoc": {
    "kind": "user",
    "methods": {
      "constructor": {
        "notice": "hardcode for SEPOLIA 0x8103B0A8A00be2DDC778e6e7eaa21791Cd364625  hardcode for Goerli  0x2Ca8E0C643bDe4C2E08ab1fA0da3401AdAD7734D "
      }
    },
    "version": 1
  },
  "storageLayout": {
    "storage": [
      {
        "astId": 3924,
        "contract": "contracts/Models.sol:Models",
        "label": "_name",
        "offset": 0,
        "slot": "0",
        "type": "t_string_storage"
      },
      {
        "astId": 3926,
        "contract": "contracts/Models.sol:Models",
        "label": "_symbol",
        "offset": 0,
        "slot": "1",
        "type": "t_string_storage"
      },
      {
        "astId": 3930,
        "contract": "contracts/Models.sol:Models",
        "label": "_owners",
        "offset": 0,
        "slot": "2",
        "type": "t_mapping(t_uint256,t_address)"
      },
      {
        "astId": 3934,
        "contract": "contracts/Models.sol:Models",
        "label": "_balances",
        "offset": 0,
        "slot": "3",
        "type": "t_mapping(t_address,t_uint256)"
      },
      {
        "astId": 3938,
        "contract": "contracts/Models.sol:Models",
        "label": "_tokenApprovals",
        "offset": 0,
        "slot": "4",
        "type": "t_mapping(t_uint256,t_address)"
      },
      {
        "astId": 3944,
        "contract": "contracts/Models.sol:Models",
        "label": "_operatorApprovals",
        "offset": 0,
        "slot": "5",
        "type": "t_mapping(t_address,t_mapping(t_address,t_bool))"
      },
      {
        "astId": 4974,
        "contract": "contracts/Models.sol:Models",
        "label": "_ownedTokens",
        "offset": 0,
        "slot": "6",
        "type": "t_mapping(t_address,t_mapping(t_uint256,t_uint256))"
      },
      {
        "astId": 4978,
        "contract": "contracts/Models.sol:Models",
        "label": "_ownedTokensIndex",
        "offset": 0,
        "slot": "7",
        "type": "t_mapping(t_uint256,t_uint256)"
      },
      {
        "astId": 4981,
        "contract": "contracts/Models.sol:Models",
        "label": "_allTokens",
        "offset": 0,
        "slot": "8",
        "type": "t_array(t_uint256)dyn_storage"
      },
      {
        "astId": 4985,
        "contract": "contracts/Models.sol:Models",
        "label": "_allTokensIndex",
        "offset": 0,
        "slot": "9",
        "type": "t_mapping(t_uint256,t_uint256)"
      },
      {
        "astId": 5329,
        "contract": "contracts/Models.sol:Models",
        "label": "_tokenURIs",
        "offset": 0,
        "slot": "10",
        "type": "t_mapping(t_uint256,t_string_storage)"
      },
      {
        "astId": 3765,
        "contract": "contracts/Models.sol:Models",
        "label": "_owner",
        "offset": 0,
        "slot": "11",
        "type": "t_address"
      },
      {
        "astId": 7321,
        "contract": "contracts/Models.sol:Models",
        "label": "allMetaData",
        "offset": 0,
        "slot": "12",
        "type": "t_mapping(t_uint256,t_array(t_string_storage)dyn_storage)"
      },
      {
        "astId": 7323,
        "contract": "contracts/Models.sol:Models",
        "label": "lengthOfMetaData",
        "offset": 0,
        "slot": "13",
        "type": "t_uint256"
      },
      {
        "astId": 7327,
        "contract": "contracts/Models.sol:Models",
        "label": "whiteList",
        "offset": 0,
        "slot": "14",
        "type": "t_mapping(t_address,t_bool)"
      },
      {
        "astId": 7332,
        "contract": "contracts/Models.sol:Models",
        "label": "currentWindowState",
        "offset": 0,
        "slot": "15",
        "type": "t_enum(WindowState)7369"
      },
      {
        "astId": 7335,
        "contract": "contracts/Models.sol:Models",
        "label": "COORDINATOR",
        "offset": 1,
        "slot": "15",
        "type": "t_contract(VRFCoordinatorV2Interface)1709"
      },
      {
        "astId": 7351,
        "contract": "contracts/Models.sol:Models",
        "label": "resToToken",
        "offset": 0,
        "slot": "16",
        "type": "t_mapping(t_uint256,t_uint256)"
      },
      {
        "astId": 7354,
        "contract": "contracts/Models.sol:Models",
        "label": "currentDegree",
        "offset": 0,
        "slot": "17",
        "type": "t_int256"
      },
      {
        "astId": 7359,
        "contract": "contracts/Models.sol:Models",
        "label": "currentDegreeLevel",
        "offset": 0,
        "slot": "18",
        "type": "t_enum(DegreeState)7374"
      },
      {
        "astId": 7363,
        "contract": "contracts/Models.sol:Models",
        "label": "tokenIdtoModeValue",
        "offset": 0,
        "slot": "19",
        "type": "t_mapping(t_uint256,t_uint256)"
      },
      {
        "astId": 7366,
        "contract": "contracts/Models.sol:Models",
        "label": "_tokenIdCounter",
        "offset": 0,
        "slot": "20",
        "type": "t_struct(Counter)5885_storage"
      }
    ],
    "types": {
      "t_address": {
        "encoding": "inplace",
        "label": "address",
        "numberOfBytes": "20"
      },
      "t_array(t_string_storage)dyn_storage": {
        "base": "t_string_storage",
        "encoding": "dynamic_array",
        "label": "string[]",
        "numberOfBytes": "32"
      },
      "t_array(t_uint256)dyn_storage": {
        "base": "t_uint256",
        "encoding": "dynamic_array",
        "label": "uint256[]",
        "numberOfBytes": "32"
      },
      "t_bool": {
        "encoding": "inplace",
        "label": "bool",
        "numberOfBytes": "1"
      },
      "t_contract(VRFCoordinatorV2Interface)1709": {
        "encoding": "inplace",
        "label": "contract VRFCoordinatorV2Interface",
        "numberOfBytes": "20"
      },
      "t_enum(DegreeState)7374": {
        "encoding": "inplace",
        "label": "enum Models.DegreeState",
        "numberOfBytes": "1"
      },
      "t_enum(WindowState)7369": {
        "encoding": "inplace",
        "label": "enum Models.WindowState",
        "numberOfBytes": "1"
      },
      "t_int256": {
        "encoding": "inplace",
        "label": "int256",
        "numberOfBytes": "32"
      },
      "t_mapping(t_address,t_bool)": {
        "encoding": "mapping",
        "key": "t_address",
        "label": "mapping(address => bool)",
        "numberOfBytes": "32",
        "value": "t_bool"
      },
      "t_mapping(t_address,t_mapping(t_address,t_bool))": {
        "encoding": "mapping",
        "key": "t_address",
        "label": "mapping(address => mapping(address => bool))",
        "numberOfBytes": "32",
        "value": "t_mapping(t_address,t_bool)"
      },
      "t_mapping(t_address,t_mapping(t_uint256,t_uint256))": {
        "encoding": "mapping",
        "key": "t_address",
        "label": "mapping(address => mapping(uint256 => uint256))",
        "numberOfBytes": "32",
        "value": "t_mapping(t_uint256,t_uint256)"
      },
      "t_mapping(t_address,t_uint256)": {
        "encoding": "mapping",
        "key": "t_address",
        "label": "mapping(address => uint256)",
        "numberOfBytes": "32",
        "value": "t_uint256"
      },
      "t_mapping(t_uint256,t_address)": {
        "encoding": "mapping",
        "key": "t_uint256",
        "label": "mapping(uint256 => address)",
        "numberOfBytes": "32",
        "value": "t_address"
      },
      "t_mapping(t_uint256,t_array(t_string_storage)dyn_storage)": {
        "encoding": "mapping",
        "key": "t_uint256",
        "label": "mapping(uint256 => string[])",
        "numberOfBytes": "32",
        "value": "t_array(t_string_storage)dyn_storage"
      },
      "t_mapping(t_uint256,t_string_storage)": {
        "encoding": "mapping",
        "key": "t_uint256",
        "label": "mapping(uint256 => string)",
        "numberOfBytes": "32",
        "value": "t_string_storage"
      },
      "t_mapping(t_uint256,t_uint256)": {
        "encoding": "mapping",
        "key": "t_uint256",
        "label": "mapping(uint256 => uint256)",
        "numberOfBytes": "32",
        "value": "t_uint256"
      },
      "t_string_storage": {
        "encoding": "bytes",
        "label": "string",
        "numberOfBytes": "32"
      },
      "t_struct(Counter)5885_storage": {
        "encoding": "inplace",
        "label": "struct Counters.Counter",
        "members": [
          {
            "astId": 5884,
            "contract": "contracts/Models.sol:Models",
            "label": "_value",
            "offset": 0,
            "slot": "0",
            "type": "t_uint256"
          }
        ],
        "numberOfBytes": "32"
      },
      "t_uint256": {
        "encoding": "inplace",
        "label": "uint256",
        "numberOfBytes": "32"
      }
    }
  }
}