{
  "address": "0x9E9033b1fa9b00F2aeF81266E7DF600fDdcA3d26",
  "abi": [
    {
      "inputs": [
        {
          "internalType": "string",
          "name": "_jobId",
          "type": "string"
        },
        {
          "internalType": "address",
          "name": "_oracle",
          "type": "address"
        },
        {
          "internalType": "address",
          "name": "linkAddress",
          "type": "address"
        },
        {
          "internalType": "address",
          "name": "modelesAddress",
          "type": "address"
        }
      ],
      "stateMutability": "nonpayable",
      "type": "constructor"
    },
    {
      "anonymous": false,
      "inputs": [
        {
          "indexed": true,
          "internalType": "bytes32",
          "name": "id",
          "type": "bytes32"
        }
      ],
      "name": "ChainlinkCancelled",
      "type": "event"
    },
    {
      "anonymous": false,
      "inputs": [
        {
          "indexed": true,
          "internalType": "bytes32",
          "name": "id",
          "type": "bytes32"
        }
      ],
      "name": "ChainlinkFulfilled",
      "type": "event"
    },
    {
      "anonymous": false,
      "inputs": [
        {
          "indexed": true,
          "internalType": "bytes32",
          "name": "id",
          "type": "bytes32"
        }
      ],
      "name": "ChainlinkRequested",
      "type": "event"
    },
    {
      "anonymous": false,
      "inputs": [
        {
          "indexed": true,
          "internalType": "address",
          "name": "from",
          "type": "address"
        },
        {
          "indexed": true,
          "internalType": "address",
          "name": "to",
          "type": "address"
        }
      ],
      "name": "OwnershipTransferRequested",
      "type": "event"
    },
    {
      "anonymous": false,
      "inputs": [
        {
          "indexed": true,
          "internalType": "address",
          "name": "from",
          "type": "address"
        },
        {
          "indexed": true,
          "internalType": "address",
          "name": "to",
          "type": "address"
        }
      ],
      "name": "OwnershipTransferred",
      "type": "event"
    },
    {
      "anonymous": false,
      "inputs": [],
      "name": "ReceivedFulfillWeather",
      "type": "event"
    },
    {
      "inputs": [],
      "name": "acceptOwnership",
      "outputs": [],
      "stateMutability": "nonpayable",
      "type": "function"
    },
    {
      "inputs": [
        {
          "internalType": "address",
          "name": "_user",
          "type": "address"
        }
      ],
      "name": "addRequestedPromision",
      "outputs": [],
      "stateMutability": "nonpayable",
      "type": "function"
    },
    {
      "inputs": [
        {
          "internalType": "bytes32",
          "name": "_requestId",
          "type": "bytes32"
        },
        {
          "internalType": "uint256",
          "name": "_payment",
          "type": "uint256"
        },
        {
          "internalType": "bytes4",
          "name": "_callbackFunctionId",
          "type": "bytes4"
        },
        {
          "internalType": "uint256",
          "name": "_expiration",
          "type": "uint256"
        }
      ],
      "name": "cancelRequest",
      "outputs": [],
      "stateMutability": "nonpayable",
      "type": "function"
    },
    {
      "inputs": [
        {
          "internalType": "string",
          "name": "_url",
          "type": "string"
        }
      ],
      "name": "changeUrlforWeather",
      "outputs": [],
      "stateMutability": "nonpayable",
      "type": "function"
    },
    {
      "inputs": [
        {
          "internalType": "bytes32",
          "name": "_requestId",
          "type": "bytes32"
        },
        {
          "internalType": "int256",
          "name": "_degree",
          "type": "int256"
        }
      ],
      "name": "fulfillWeather",
      "outputs": [],
      "stateMutability": "nonpayable",
      "type": "function"
    },
    {
      "inputs": [],
      "name": "getChainlinkToken",
      "outputs": [
        {
          "internalType": "address",
          "name": "",
          "type": "address"
        }
      ],
      "stateMutability": "view",
      "type": "function"
    },
    {
      "inputs": [],
      "name": "jobId",
      "outputs": [
        {
          "internalType": "string",
          "name": "",
          "type": "string"
        }
      ],
      "stateMutability": "view",
      "type": "function"
    },
    {
      "inputs": [],
      "name": "modeles",
      "outputs": [
        {
          "internalType": "contract Models",
          "name": "",
          "type": "address"
        }
      ],
      "stateMutability": "view",
      "type": "function"
    },
    {
      "inputs": [],
      "name": "operationAddress",
      "outputs": [
        {
          "internalType": "address",
          "name": "",
          "type": "address"
        }
      ],
      "stateMutability": "view",
      "type": "function"
    },
    {
      "inputs": [],
      "name": "owner",
      "outputs": [
        {
          "internalType": "address",
          "name": "",
          "type": "address"
        }
      ],
      "stateMutability": "view",
      "type": "function"
    },
    {
      "inputs": [],
      "name": "requestCurrentWeather",
      "outputs": [],
      "stateMutability": "nonpayable",
      "type": "function"
    },
    {
      "inputs": [
        {
          "internalType": "address",
          "name": "to",
          "type": "address"
        }
      ],
      "name": "transferOwnership",
      "outputs": [],
      "stateMutability": "nonpayable",
      "type": "function"
    },
    {
      "inputs": [],
      "name": "wheatherUrl",
      "outputs": [
        {
          "internalType": "string",
          "name": "",
          "type": "string"
        }
      ],
      "stateMutability": "view",
      "type": "function"
    },
    {
      "inputs": [],
      "name": "withdrawLink",
      "outputs": [],
      "stateMutability": "nonpayable",
      "type": "function"
    }
  ],
  "transactionHash": "0xeab197beaff63245631e77e32426c781b4852f66fbd48883ba280eacea9f0fd9",
  "args": [
    "01cf7cb3ea804c9b95b08e92ff69c19b",
    "0x8a47E5063A8DD59D21daa2798825a320A8Ec4e94",
    "0x779877A7B0D9E8603169DdbD7836e478b4624789",
    "0x52e61459BD41aefA9E1A6915f20CbE7ec70eF1BC"
  ],
  "numDeployments": 1,
  "solcInputHash": "7a737455baec70f4ffad868610217b94",
  "bytecode": "0x60a060405260016004556040518060800160405280605f8152602001620035aa605f9139600b908162000033919062000650565b503480156200004157600080fd5b506040516200360938038062003609833981810160405281019062000067919062000900565b338060008073ffffffffffffffffffffffffffffffffffffffff168273ffffffffffffffffffffffffffffffffffffffff1603620000dc576040517f08c379a0000000000000000000000000000000000000000000000000000000008152600401620000d390620009f2565b60405180910390fd5b81600660006101000a81548173ffffffffffffffffffffffffffffffffffffffff021916908373ffffffffffffffffffffffffffffffffffffffff160217905550600073ffffffffffffffffffffffffffffffffffffffff168173ffffffffffffffffffffffffffffffffffffffff1614620001645762000163816200026160201b60201c565b5b50505080600960006101000a81548173ffffffffffffffffffffffffffffffffffffffff021916908373ffffffffffffffffffffffffffffffffffffffff1602179055508360089081620001b9919062000650565b508273ffffffffffffffffffffffffffffffffffffffff1660808173ffffffffffffffffffffffffffffffffffffffff1681525050620001ff826200039260201b60201c565b6001600a60003373ffffffffffffffffffffffffffffffffffffffff1673ffffffffffffffffffffffffffffffffffffffff16815260200190815260200160002060006101000a81548160ff0219169083151502179055505050505062000a86565b3373ffffffffffffffffffffffffffffffffffffffff168173ffffffffffffffffffffffffffffffffffffffff1603620002d2576040517f08c379a0000000000000000000000000000000000000000000000000000000008152600401620002c99062000a64565b60405180910390fd5b80600760006101000a81548173ffffffffffffffffffffffffffffffffffffffff021916908373ffffffffffffffffffffffffffffffffffffffff1602179055508073ffffffffffffffffffffffffffffffffffffffff16600660009054906101000a900473ffffffffffffffffffffffffffffffffffffffff1673ffffffffffffffffffffffffffffffffffffffff167fed8889f560326eb138920d842192f0eb3dd22b4f139c87a2c57538e05bae127860405160405180910390a350565b80600260006101000a81548173ffffffffffffffffffffffffffffffffffffffff021916908373ffffffffffffffffffffffffffffffffffffffff16021790555050565b600081519050919050565b7f4e487b7100000000000000000000000000000000000000000000000000000000600052604160045260246000fd5b7f4e487b7100000000000000000000000000000000000000000000000000000000600052602260045260246000fd5b600060028204905060018216806200045857607f821691505b6020821081036200046e576200046d62000410565b5b50919050565b60008190508160005260206000209050919050565b60006020601f8301049050919050565b600082821b905092915050565b600060088302620004d87fffffffffffffffffffffffffffffffffffffffffffffffffffffffffffffffff8262000499565b620004e4868362000499565b95508019841693508086168417925050509392505050565b6000819050919050565b6000819050919050565b6000620005316200052b6200052584620004fc565b62000506565b620004fc565b9050919050565b6000819050919050565b6200054d8362000510565b620005656200055c8262000538565b848454620004a6565b825550505050565b600090565b6200057c6200056d565b6200058981848462000542565b505050565b5b81811015620005b157620005a560008262000572565b6001810190506200058f565b5050565b601f8211156200060057620005ca8162000474565b620005d58462000489565b81016020851015620005e5578190505b620005fd620005f48562000489565b8301826200058e565b50505b505050565b600082821c905092915050565b6000620006256000198460080262000605565b1980831691505092915050565b600062000640838362000612565b9150826002028217905092915050565b6200065b82620003d6565b67ffffffffffffffff811115620006775762000676620003e1565b5b6200068382546200043f565b62000690828285620005b5565b600060209050601f831160018114620006c85760008415620006b3578287015190505b620006bf858262000632565b8655506200072f565b601f198416620006d88662000474565b60005b828110156200070257848901518255600182019150602085019450602081019050620006db565b868310156200072257848901516200071e601f89168262000612565b8355505b6001600288020188555050505b505050505050565b6000604051905090565b600080fd5b600080fd5b600080fd5b600080fd5b6000601f19601f8301169050919050565b620007718262000755565b810181811067ffffffffffffffff82111715620007935762000792620003e1565b5b80604052505050565b6000620007a862000737565b9050620007b6828262000766565b919050565b600067ffffffffffffffff821115620007d957620007d8620003e1565b5b620007e48262000755565b9050602081019050919050565b60005b8381101562000811578082015181840152602081019050620007f4565b60008484015250505050565b6000620008346200082e84620007bb565b6200079c565b90508281526020810184848401111562000853576200085262000750565b5b62000860848285620007f1565b509392505050565b600082601f83011262000880576200087f6200074b565b5b8151620008928482602086016200081d565b91505092915050565b600073ffffffffffffffffffffffffffffffffffffffff82169050919050565b6000620008c8826200089b565b9050919050565b620008da81620008bb565b8114620008e657600080fd5b50565b600081519050620008fa81620008cf565b92915050565b600080600080608085870312156200091d576200091c62000741565b5b600085015167ffffffffffffffff8111156200093e576200093d62000746565b5b6200094c8782880162000868565b94505060206200095f87828801620008e9565b93505060406200097287828801620008e9565b92505060606200098587828801620008e9565b91505092959194509250565b600082825260208201905092915050565b7f43616e6e6f7420736574206f776e657220746f207a65726f0000000000000000600082015250565b6000620009da60188362000991565b9150620009e782620009a2565b602082019050919050565b6000602082019050818103600083015262000a0d81620009cb565b9050919050565b7f43616e6e6f74207472616e7366657220746f2073656c66000000000000000000600082015250565b600062000a4c60178362000991565b915062000a598262000a14565b602082019050919050565b6000602082019050818103600083015262000a7f8162000a3d565b9050919050565b608051612b0162000aa9600039600081816106ca015261092c0152612b016000f3fe608060405234801561001057600080fd5b50600436106100ea5760003560e01c806396bfff061161008c578063d1f2726e11610066578063d1f2726e146101db578063ec65d0f8146101f7578063f2fde38b14610213578063f59f0eae1461022f576100ea565b806396bfff0614610181578063a441c3021461019f578063c2939d97146101bd576100ea565b806387d6bb33116100c857806387d6bb33146101215780638da5cb5b1461013d5780638dc654a21461015b578063967a33a214610165576100ea565b8063165d35e1146100ef57806379ba50971461010d57806382b6454114610117575b600080fd5b6100f761024d565b6040516101049190611a11565b60405180910390f35b61011561025c565b005b61011f6103f3565b005b61013b60048036038101906101369190611a62565b610714565b005b610145610777565b6040516101529190611a11565b60405180910390f35b6101636107a1565b005b61017f600480360381019061017a9190611af4565b6108ee565b005b610189610904565b6040516101969190611ba0565b60405180910390f35b6101a761092a565b6040516101b49190611a11565b60405180910390f35b6101c561094e565b6040516101d29190611c4b565b60405180910390f35b6101f560048036038101906101f09190611cd9565b6109dc565b005b610211600480360381019061020c9190611da7565b610b9f565b005b61022d60048036038101906102289190611a62565b610bb9565b005b610237610bcd565b6040516102449190611c4b565b60405180910390f35b6000610257610c5b565b905090565b600760009054906101000a900473ffffffffffffffffffffffffffffffffffffffff1673ffffffffffffffffffffffffffffffffffffffff163373ffffffffffffffffffffffffffffffffffffffff16146102ec576040517f08c379a00000000000000000000000000000000000000000000000000000000081526004016102e390611e5a565b60405180910390fd5b6000600660009054906101000a900473ffffffffffffffffffffffffffffffffffffffff16905033600660006101000a81548173ffffffffffffffffffffffffffffffffffffffff021916908373ffffffffffffffffffffffffffffffffffffffff1602179055506000600760006101000a81548173ffffffffffffffffffffffffffffffffffffffff021916908373ffffffffffffffffffffffffffffffffffffffff1602179055503373ffffffffffffffffffffffffffffffffffffffff168173ffffffffffffffffffffffffffffffffffffffff167f8be0079c531659141344cd1fd0a4f28419497f9722a3daafe3b4186f6b6457e060405160405180910390a350565b600a60003373ffffffffffffffffffffffffffffffffffffffff1673ffffffffffffffffffffffffffffffffffffffff16815260200190815260200160002060009054906101000a900460ff1661047f576040517f08c379a000000000000000000000000000000000000000000000000000000000815260040161047690611ec6565b60405180910390fd5b60006105256105176008805461049490611f15565b80601f01602080910402602001604051908101604052809291908181526020018280546104c090611f15565b801561050d5780601f106104e25761010080835404028352916020019161050d565b820191906000526020600020905b8154815290600101906020018083116104f057829003601f168201915b5050505050610c85565b3063d1f2726e60e01b610cae565b90506105fb6040518060400160405280600381526020017f6765740000000000000000000000000000000000000000000000000000000000815250600b805461056d90611f15565b80601f016020809104026020016040519081016040528092919081815260200182805461059990611f15565b80156105e65780601f106105bb576101008083540402835291602001916105e6565b820191906000526020600020905b8154815290600101906020018083116105c957829003601f168201915b505050505083610cdf9092919063ffffffff16565b61067a6040518060400160405280600481526020017f70617468000000000000000000000000000000000000000000000000000000008152506040518060400160405280601b81526020017f63757272656e745f776561746865722c74656d7065726174757265000000000081525083610cdf9092919063ffffffff16565b6106c56040518060400160405280600581526020017f74696d6573000000000000000000000000000000000000000000000000000000815250606483610d129092919063ffffffff16565b6107107f000000000000000000000000000000000000000000000000000000000000000082600a670de0b6b3a764000060016107019190611f75565b61070b9190611fe6565b610d45565b5050565b61071c610e11565b6001600a60008373ffffffffffffffffffffffffffffffffffffffff1673ffffffffffffffffffffffffffffffffffffffff16815260200190815260200160002060006101000a81548160ff02191690831515021790555050565b6000600660009054906101000a900473ffffffffffffffffffffffffffffffffffffffff16905090565b6107a9610e11565b60006107b3610c5b565b90508073ffffffffffffffffffffffffffffffffffffffff1663a9059cbb338373ffffffffffffffffffffffffffffffffffffffff166370a08231306040518263ffffffff1660e01b815260040161080b9190611a11565b602060405180830381865afa158015610828573d6000803e3d6000fd5b505050506040513d601f19601f8201168201806040525081019061084c919061202c565b6040518363ffffffff1660e01b8152600401610869929190612068565b6020604051808303816000875af1158015610888573d6000803e3d6000fd5b505050506040513d601f19601f820116820180604052508101906108ac91906120c9565b6108eb576040517f08c379a00000000000000000000000000000000000000000000000000000000081526004016108e290612142565b60405180910390fd5b50565b8181600b91826108ff92919061233e565b505050565b600960009054906101000a900473ffffffffffffffffffffffffffffffffffffffff1681565b7f000000000000000000000000000000000000000000000000000000000000000081565b6008805461095b90611f15565b80601f016020809104026020016040519081016040528092919081815260200182805461098790611f15565b80156109d45780601f106109a9576101008083540402835291602001916109d4565b820191906000526020600020905b8154815290600101906020018083116109b757829003601f168201915b505050505081565b816005600082815260200190815260200160002060009054906101000a900473ffffffffffffffffffffffffffffffffffffffff1673ffffffffffffffffffffffffffffffffffffffff163373ffffffffffffffffffffffffffffffffffffffff1614610a7e576040517f08c379a0000000000000000000000000000000000000000000000000000000008152600401610a7590612480565b60405180910390fd5b6005600082815260200190815260200160002060006101000a81549073ffffffffffffffffffffffffffffffffffffffff0219169055807f7cc135e0cebb02c3480ae5d74d377283180a2601f8f644edf7987b009316c63a60405160405180910390a2600960009054906101000a900473ffffffffffffffffffffffffffffffffffffffff1673ffffffffffffffffffffffffffffffffffffffff166359737ee1836040518263ffffffff1660e01b8152600401610b3c91906124af565b600060405180830381600087803b158015610b5657600080fd5b505af1158015610b6a573d6000803e3d6000fd5b505050507fa3e3aa8772fb60025533901c23518c6a00a1bbde3f8c33f00cf7d5bbd2ed1adc60405160405180910390a1505050565b610ba7610e11565b610bb384848484610ea3565b50505050565b610bc1610e11565b610bca81610fb6565b50565b600b8054610bda90611f15565b80601f0160208091040260200160405190810160405280929190818152602001828054610c0690611f15565b8015610c535780601f10610c2857610100808354040283529160200191610c53565b820191906000526020600020905b815481529060010190602001808311610c3657829003601f168201915b505050505081565b6000600260009054906101000a900473ffffffffffffffffffffffffffffffffffffffff16905090565b6000808290506000815103610ca0576000801b915050610ca9565b60208301519150505b919050565b610cb6611949565b610cbe611949565b610cd5858585846110e4909392919063ffffffff16565b9150509392505050565b610cf682846080015161119490919063ffffffff16565b610d0d81846080015161119490919063ffffffff16565b505050565b610d2982846080015161119490919063ffffffff16565b610d408184608001516111b990919063ffffffff16565b505050565b6000806004549050600181610d5a91906124ca565b6004819055506000634042994660e01b60008087600001513089604001518760018c6080015160000151604051602401610d9b989796959493929190612571565b604051602081830303815290604052907bffffffffffffffffffffffffffffffffffffffffffffffffffffffff19166020820180517bffffffffffffffffffffffffffffffffffffffffffffffffffffffff83818316178352505050509050610e0686838684611266565b925050509392505050565b600660009054906101000a900473ffffffffffffffffffffffffffffffffffffffff1673ffffffffffffffffffffffffffffffffffffffff163373ffffffffffffffffffffffffffffffffffffffff1614610ea1576040517f08c379a0000000000000000000000000000000000000000000000000000000008152600401610e9890612642565b60405180910390fd5b565b60006005600086815260200190815260200160002060009054906101000a900473ffffffffffffffffffffffffffffffffffffffff1690506005600086815260200190815260200160002060006101000a81549073ffffffffffffffffffffffffffffffffffffffff0219169055847fe1fe3afa0f7f761ff0a8b89086790efd5140d2907ebd5b7ff6bfcb5e075fd4c560405160405180910390a28073ffffffffffffffffffffffffffffffffffffffff16636ee4d553868686866040518563ffffffff1660e01b8152600401610f7d9493929190612662565b600060405180830381600087803b158015610f9757600080fd5b505af1158015610fab573d6000803e3d6000fd5b505050505050505050565b3373ffffffffffffffffffffffffffffffffffffffff168173ffffffffffffffffffffffffffffffffffffffff1603611024576040517f08c379a000000000000000000000000000000000000000000000000000000000815260040161101b906126f3565b60405180910390fd5b80600760006101000a81548173ffffffffffffffffffffffffffffffffffffffff021916908373ffffffffffffffffffffffffffffffffffffffff1602179055508073ffffffffffffffffffffffffffffffffffffffff16600660009054906101000a900473ffffffffffffffffffffffffffffffffffffffff1673ffffffffffffffffffffffffffffffffffffffff167fed8889f560326eb138920d842192f0eb3dd22b4f139c87a2c57538e05bae127860405160405180910390a350565b6110ec611949565b6110fc85608001516101006113fb565b508385600001818152505082856020019073ffffffffffffffffffffffffffffffffffffffff16908173ffffffffffffffffffffffffffffffffffffffff16815250508185604001907bffffffffffffffffffffffffffffffffffffffffffffffffffffffff191690817bffffffffffffffffffffffffffffffffffffffffffffffffffffffff191681525050849050949350505050565b6111a18260038351611465565b6111b481836115ea90919063ffffffff16565b505050565b7fffffffffffffffffffffffffffffffffffffffffffffffff00000000000000008112156111f0576111eb828261160c565b611262565b67ffffffffffffffff81131561120f5761120a8282611683565b611261565b600081126112285761122382600083611465565b611260565b61125f826001837fffffffffffffffffffffffffffffffffffffffffffffffffffffffffffffffff61125a9190612713565b611465565b5b5b5b5050565b6000308460405160200161127b9291906127d1565b604051602081830303815290604052805190602001209050846005600083815260200190815260200160002060006101000a81548173ffffffffffffffffffffffffffffffffffffffff021916908373ffffffffffffffffffffffffffffffffffffffff160217905550807fb5e6e01e79f91267dc17b4e6314d5d4d03593d2ceee0fbb452b750bd70ea5af960405160405180910390a2600260009054906101000a900473ffffffffffffffffffffffffffffffffffffffff1673ffffffffffffffffffffffffffffffffffffffff16634000aea08685856040518463ffffffff1660e01b8152600401611371939291906127fd565b6020604051808303816000875af1158015611390573d6000803e3d6000fd5b505050506040513d601f19601f820116820180604052508101906113b491906120c9565b6113f3576040517f08c379a00000000000000000000000000000000000000000000000000000000081526004016113ea906128ad565b60405180910390fd5b949350505050565b6114036119b6565b600060208361141291906128cd565b1461143e5760208261142491906128cd565b602061143091906128fe565b8261143b91906124ca565b91505b81836020018181525050604051808452600081528281016020016040525082905092915050565b60178167ffffffffffffffff161161149c576114968160058460ff16901b60ff1617846116cf90919063ffffffff16565b506115e5565b60ff8167ffffffffffffffff16116114f2576114cb601860058460ff16901b17846116cf90919063ffffffff16565b506114ec8167ffffffffffffffff166001856116ef9092919063ffffffff16565b506115e4565b61ffff8167ffffffffffffffff161161154957611522601960058460ff16901b17846116cf90919063ffffffff16565b506115438167ffffffffffffffff166002856116ef9092919063ffffffff16565b506115e3565b63ffffffff8167ffffffffffffffff16116115a25761157b601a60058460ff16901b17846116cf90919063ffffffff16565b5061159c8167ffffffffffffffff166004856116ef9092919063ffffffff16565b506115e2565b6115bf601b60058460ff16901b17846116cf90919063ffffffff16565b506115e08167ffffffffffffffff166008856116ef9092919063ffffffff16565b505b5b5b5b505050565b6115f26119b6565b61160483846000015151848551611711565b905092915050565b61162a60036005600660ff16901b17836116cf90919063ffffffff16565b5061167f82827fffffffffffffffffffffffffffffffffffffffffffffffffffffffffffffffff61165b9190612713565b60405160200161166b9190612932565b604051602081830303815290604052611800565b5050565b6116a160026005600660ff16901b17836116cf90919063ffffffff16565b506116cb82826040516020016116b79190612932565b604051602081830303815290604052611800565b5050565b6116d76119b6565b6116e78384600001515184611825565b905092915050565b6116f76119b6565b61170884856000015151858561187b565b90509392505050565b6117196119b6565b825182111561172757600080fd5b8460200151828561173891906124ca565b111561176d5761176c85600261175d8860200151888761175891906124ca565b611909565b6117679190611f75565b611925565b5b60008086518051876020830101935080888701111561178c5787860182525b60208701925050505b602084106117d357805182526020826117ae91906124ca565b91506020816117bd91906124ca565b90506020846117cc91906128fe565b9350611795565b60006001856020036101000a03905080198251168184511681811785525050508692505050949350505050565b61180d8260028351611465565b61182081836115ea90919063ffffffff16565b505050565b61182d6119b6565b8360200151831061185357611852846002866020015161184d9190611f75565b611925565b5b8351805160208583010184815381860361186e576001820183525b5050508390509392505050565b6118836119b6565b8460200151848361189491906124ca565b11156118bc576118bb85600286856118ac91906124ca565b6118b69190611f75565b611925565b5b60006001836101006118ce9190612a80565b6118d891906128fe565b905085518386820101858319825116178152815185880111156118fb5784870182525b505085915050949350505050565b60008183111561191b5782905061191f565b8190505b92915050565b60008260000151905061193883836113fb565b5061194383826115ea565b50505050565b6040518060a0016040528060008019168152602001600073ffffffffffffffffffffffffffffffffffffffff16815260200160007bffffffffffffffffffffffffffffffffffffffffffffffffffffffff19168152602001600081526020016119b06119b6565b81525090565b604051806040016040528060608152602001600081525090565b600073ffffffffffffffffffffffffffffffffffffffff82169050919050565b60006119fb826119d0565b9050919050565b611a0b816119f0565b82525050565b6000602082019050611a266000830184611a02565b92915050565b600080fd5b600080fd5b611a3f816119f0565b8114611a4a57600080fd5b50565b600081359050611a5c81611a36565b92915050565b600060208284031215611a7857611a77611a2c565b5b6000611a8684828501611a4d565b91505092915050565b600080fd5b600080fd5b600080fd5b60008083601f840112611ab457611ab3611a8f565b5b8235905067ffffffffffffffff811115611ad157611ad0611a94565b5b602083019150836001820283011115611aed57611aec611a99565b5b9250929050565b60008060208385031215611b0b57611b0a611a2c565b5b600083013567ffffffffffffffff811115611b2957611b28611a31565b5b611b3585828601611a9e565b92509250509250929050565b6000819050919050565b6000611b66611b61611b5c846119d0565b611b41565b6119d0565b9050919050565b6000611b7882611b4b565b9050919050565b6000611b8a82611b6d565b9050919050565b611b9a81611b7f565b82525050565b6000602082019050611bb56000830184611b91565b92915050565b600081519050919050565b600082825260208201905092915050565b60005b83811015611bf5578082015181840152602081019050611bda565b60008484015250505050565b6000601f19601f8301169050919050565b6000611c1d82611bbb565b611c278185611bc6565b9350611c37818560208601611bd7565b611c4081611c01565b840191505092915050565b60006020820190508181036000830152611c658184611c12565b905092915050565b6000819050919050565b611c8081611c6d565b8114611c8b57600080fd5b50565b600081359050611c9d81611c77565b92915050565b6000819050919050565b611cb681611ca3565b8114611cc157600080fd5b50565b600081359050611cd381611cad565b92915050565b60008060408385031215611cf057611cef611a2c565b5b6000611cfe85828601611c8e565b9250506020611d0f85828601611cc4565b9150509250929050565b6000819050919050565b611d2c81611d19565b8114611d3757600080fd5b50565b600081359050611d4981611d23565b92915050565b60007fffffffff0000000000000000000000000000000000000000000000000000000082169050919050565b611d8481611d4f565b8114611d8f57600080fd5b50565b600081359050611da181611d7b565b92915050565b60008060008060808587031215611dc157611dc0611a2c565b5b6000611dcf87828801611c8e565b9450506020611de087828801611d3a565b9350506040611df187828801611d92565b9250506060611e0287828801611d3a565b91505092959194509250565b7f4d7573742062652070726f706f736564206f776e657200000000000000000000600082015250565b6000611e44601683611bc6565b9150611e4f82611e0e565b602082019050919050565b60006020820190508181036000830152611e7381611e37565b9050919050565b7f596f7520646f6e27742068617665207065726d697373696f6e2e000000000000600082015250565b6000611eb0601a83611bc6565b9150611ebb82611e7a565b602082019050919050565b60006020820190508181036000830152611edf81611ea3565b9050919050565b7f4e487b7100000000000000000000000000000000000000000000000000000000600052602260045260246000fd5b60006002820490506001821680611f2d57607f821691505b602082108103611f4057611f3f611ee6565b5b50919050565b7f4e487b7100000000000000000000000000000000000000000000000000000000600052601160045260246000fd5b6000611f8082611d19565b9150611f8b83611d19565b9250828202611f9981611d19565b91508282048414831517611fb057611faf611f46565b5b5092915050565b7f4e487b7100000000000000000000000000000000000000000000000000000000600052601260045260246000fd5b6000611ff182611d19565b9150611ffc83611d19565b92508261200c5761200b611fb7565b5b828204905092915050565b60008151905061202681611d23565b92915050565b60006020828403121561204257612041611a2c565b5b600061205084828501612017565b91505092915050565b61206281611d19565b82525050565b600060408201905061207d6000830185611a02565b61208a6020830184612059565b9392505050565b60008115159050919050565b6120a681612091565b81146120b157600080fd5b50565b6000815190506120c38161209d565b92915050565b6000602082840312156120df576120de611a2c565b5b60006120ed848285016120b4565b91505092915050565b7f556e61626c6520746f207472616e736665720000000000000000000000000000600082015250565b600061212c601283611bc6565b9150612137826120f6565b602082019050919050565b6000602082019050818103600083015261215b8161211f565b9050919050565b600082905092915050565b7f4e487b7100000000000000000000000000000000000000000000000000000000600052604160045260246000fd5b60008190508160005260206000209050919050565b60006020601f8301049050919050565b600082821b905092915050565b6000600883026121fe7fffffffffffffffffffffffffffffffffffffffffffffffffffffffffffffffff826121c1565b61220886836121c1565b95508019841693508086168417925050509392505050565b600061223b61223661223184611d19565b611b41565b611d19565b9050919050565b6000819050919050565b61225583612220565b61226961226182612242565b8484546121ce565b825550505050565b600090565b61227e612271565b61228981848461224c565b505050565b5b818110156122ad576122a2600082612276565b60018101905061228f565b5050565b601f8211156122f2576122c38161219c565b6122cc846121b1565b810160208510156122db578190505b6122ef6122e7856121b1565b83018261228e565b50505b505050565b600082821c905092915050565b6000612315600019846008026122f7565b1980831691505092915050565b600061232e8383612304565b9150826002028217905092915050565b6123488383612162565b67ffffffffffffffff8111156123615761236061216d565b5b61236b8254611f15565b6123768282856122b1565b6000601f8311600181146123a55760008415612393578287013590505b61239d8582612322565b865550612405565b601f1984166123b38661219c565b60005b828110156123db578489013582556001820191506020850194506020810190506123b6565b868310156123f857848901356123f4601f891682612304565b8355505b6001600288020188555050505b50505050505050565b7f536f75726365206d75737420626520746865206f7261636c65206f662074686560008201527f2072657175657374000000000000000000000000000000000000000000000000602082015250565b600061246a602883611bc6565b91506124758261240e565b604082019050919050565b600060208201905081810360008301526124998161245d565b9050919050565b6124a981611ca3565b82525050565b60006020820190506124c460008301846124a0565b92915050565b60006124d582611d19565b91506124e083611d19565b92508282019050808211156124f8576124f7611f46565b5b92915050565b61250781611c6d565b82525050565b61251681611d4f565b82525050565b600081519050919050565b600082825260208201905092915050565b60006125438261251c565b61254d8185612527565b935061255d818560208601611bd7565b61256681611c01565b840191505092915050565b600061010082019050612587600083018b611a02565b612594602083018a612059565b6125a160408301896124fe565b6125ae6060830188611a02565b6125bb608083018761250d565b6125c860a0830186612059565b6125d560c0830185612059565b81810360e08301526125e78184612538565b90509998505050505050505050565b7f4f6e6c792063616c6c61626c65206279206f776e657200000000000000000000600082015250565b600061262c601683611bc6565b9150612637826125f6565b602082019050919050565b6000602082019050818103600083015261265b8161261f565b9050919050565b600060808201905061267760008301876124fe565b6126846020830186612059565b612691604083018561250d565b61269e6060830184612059565b95945050505050565b7f43616e6e6f74207472616e7366657220746f2073656c66000000000000000000600082015250565b60006126dd601783611bc6565b91506126e8826126a7565b602082019050919050565b6000602082019050818103600083015261270c816126d0565b9050919050565b600061271e82611ca3565b915061272983611ca3565b92508282039050818112600084121682821360008512151617156127505761274f611f46565b5b92915050565b600061276182611b6d565b9050919050565b60008160601b9050919050565b600061278082612768565b9050919050565b600061279282612775565b9050919050565b6127aa6127a582612756565b612787565b82525050565b6000819050919050565b6127cb6127c682611d19565b6127b0565b82525050565b60006127dd8285612799565b6014820191506127ed82846127ba565b6020820191508190509392505050565b60006060820190506128126000830186611a02565b61281f6020830185612059565b81810360408301526128318184612538565b9050949350505050565b7f756e61626c6520746f207472616e73666572416e6443616c6c20746f206f726160008201527f636c650000000000000000000000000000000000000000000000000000000000602082015250565b6000612897602383611bc6565b91506128a28261283b565b604082019050919050565b600060208201905081810360008301526128c68161288a565b9050919050565b60006128d882611d19565b91506128e383611d19565b9250826128f3576128f2611fb7565b5b828206905092915050565b600061290982611d19565b915061291483611d19565b925082820390508181111561292c5761292b611f46565b5b92915050565b60006020820190506129476000830184612059565b92915050565b60008160011c9050919050565b6000808291508390505b60018511156129a4578086048111156129805761297f611f46565b5b600185161561298f5780820291505b808102905061299d8561294d565b9450612964565b94509492505050565b6000826129bd5760019050612a79565b816129cb5760009050612a79565b81600181146129e157600281146129eb57612a1a565b6001915050612a79565b60ff8411156129fd576129fc611f46565b5b8360020a915084821115612a1457612a13611f46565b5b50612a79565b5060208310610133831016604e8410600b8410161715612a4f5782820a905083811115612a4a57612a49611f46565b5b612a79565b612a5c848484600161295a565b92509050818404811115612a7357612a72611f46565b5b81810290505b9392505050565b6000612a8b82611d19565b9150612a9683611d19565b9250612ac37fffffffffffffffffffffffffffffffffffffffffffffffffffffffffffffffff84846129ad565b90509291505056fea264697066735822122086de8c9794fe537fd02969a77336d01d21e9c007ad96d3c51f9d2828f88876f364736f6c6343000813003368747470733a2f2f6170692e6f70656e2d6d6574656f2e636f6d2f76312f666f7265636173743f6c617469747564653d33302e35383333266c6f6e6769747564653d3131342e323636372663757272656e745f776561746865723d74727565",
  "devdoc": {
    "kind": "dev",
    "methods": {
      "constructor": {
        "params": {
          "_jobId": "this id is jobId of job running on your chainlink node",
          "_oracle": "this is the operationAddress"
        }
      }
    },
    "version": 1
  },
  "userdoc": {
    "kind": "user",
    "methods": {
      "acceptOwnership()": {
        "notice": "Allows an ownership transfer to be completed by the recipient."
      },
      "owner()": {
        "notice": "Get the current owner"
      },
      "transferOwnership(address)": {
        "notice": "Allows an owner to begin transferring ownership to a new address, pending."
      }
    },
    "version": 1
  },
  "storageLayout": {
    "storage": [
      {
        "astId": 358,
        "contract": "contracts/WeatherRequestConsumer.sol:WeatherRequestConsumer",
        "label": "s_ens",
        "offset": 0,
        "slot": "0",
        "type": "t_contract(ENSInterface)1375"
      },
      {
        "astId": 360,
        "contract": "contracts/WeatherRequestConsumer.sol:WeatherRequestConsumer",
        "label": "s_ensNode",
        "offset": 0,
        "slot": "1",
        "type": "t_bytes32"
      },
      {
        "astId": 363,
        "contract": "contracts/WeatherRequestConsumer.sol:WeatherRequestConsumer",
        "label": "s_link",
        "offset": 0,
        "slot": "2",
        "type": "t_contract(LinkTokenInterface)1470"
      },
      {
        "astId": 366,
        "contract": "contracts/WeatherRequestConsumer.sol:WeatherRequestConsumer",
        "label": "s_oracle",
        "offset": 0,
        "slot": "3",
        "type": "t_contract(OperatorInterface)1550"
      },
      {
        "astId": 369,
        "contract": "contracts/WeatherRequestConsumer.sol:WeatherRequestConsumer",
        "label": "s_requestCount",
        "offset": 0,
        "slot": "4",
        "type": "t_uint256"
      },
      {
        "astId": 373,
        "contract": "contracts/WeatherRequestConsumer.sol:WeatherRequestConsumer",
        "label": "s_pendingRequests",
        "offset": 0,
        "slot": "5",
        "type": "t_mapping(t_bytes32,t_address)"
      },
      {
        "astId": 928,
        "contract": "contracts/WeatherRequestConsumer.sol:WeatherRequestConsumer",
        "label": "s_owner",
        "offset": 0,
        "slot": "6",
        "type": "t_address"
      },
      {
        "astId": 930,
        "contract": "contracts/WeatherRequestConsumer.sol:WeatherRequestConsumer",
        "label": "s_pendingOwner",
        "offset": 0,
        "slot": "7",
        "type": "t_address"
      },
      {
        "astId": 8067,
        "contract": "contracts/WeatherRequestConsumer.sol:WeatherRequestConsumer",
        "label": "jobId",
        "offset": 0,
        "slot": "8",
        "type": "t_string_storage"
      },
      {
        "astId": 8072,
        "contract": "contracts/WeatherRequestConsumer.sol:WeatherRequestConsumer",
        "label": "modeles",
        "offset": 0,
        "slot": "9",
        "type": "t_contract(Models)8044"
      },
      {
        "astId": 8076,
        "contract": "contracts/WeatherRequestConsumer.sol:WeatherRequestConsumer",
        "label": "authenticatedUser",
        "offset": 0,
        "slot": "10",
        "type": "t_mapping(t_address,t_bool)"
      },
      {
        "astId": 8079,
        "contract": "contracts/WeatherRequestConsumer.sol:WeatherRequestConsumer",
        "label": "wheatherUrl",
        "offset": 0,
        "slot": "11",
        "type": "t_string_storage"
      }
    ],
    "types": {
      "t_address": {
        "encoding": "inplace",
        "label": "address",
        "numberOfBytes": "20"
      },
      "t_bool": {
        "encoding": "inplace",
        "label": "bool",
        "numberOfBytes": "1"
      },
      "t_bytes32": {
        "encoding": "inplace",
        "label": "bytes32",
        "numberOfBytes": "32"
      },
      "t_contract(ENSInterface)1375": {
        "encoding": "inplace",
        "label": "contract ENSInterface",
        "numberOfBytes": "20"
      },
      "t_contract(LinkTokenInterface)1470": {
        "encoding": "inplace",
        "label": "contract LinkTokenInterface",
        "numberOfBytes": "20"
      },
      "t_contract(Models)8044": {
        "encoding": "inplace",
        "label": "contract Models",
        "numberOfBytes": "20"
      },
      "t_contract(OperatorInterface)1550": {
        "encoding": "inplace",
        "label": "contract OperatorInterface",
        "numberOfBytes": "20"
      },
      "t_mapping(t_address,t_bool)": {
        "encoding": "mapping",
        "key": "t_address",
        "label": "mapping(address => bool)",
        "numberOfBytes": "32",
        "value": "t_bool"
      },
      "t_mapping(t_bytes32,t_address)": {
        "encoding": "mapping",
        "key": "t_bytes32",
        "label": "mapping(bytes32 => address)",
        "numberOfBytes": "32",
        "value": "t_address"
      },
      "t_string_storage": {
        "encoding": "bytes",
        "label": "string",
        "numberOfBytes": "32"
      },
      "t_uint256": {
        "encoding": "inplace",
        "label": "uint256",
        "numberOfBytes": "32"
      }
    }
  }
}